{
  "contractName": "Cart",
  "abi": [
    {
      "inputs": [
        {
          "internalType": "address",
          "name": "_token",
          "type": "address"
        }
      ],
      "stateMutability": "nonpayable",
      "type": "constructor"
    },
    {
      "anonymous": false,
      "inputs": [
        {
          "indexed": false,
          "internalType": "bytes32",
          "name": "user",
          "type": "bytes32"
        },
        {
          "indexed": false,
          "internalType": "uint256",
          "name": "product_id",
          "type": "uint256"
        }
      ],
      "name": "AddItem",
      "type": "event"
    },
    {
      "anonymous": false,
      "inputs": [
        {
          "indexed": true,
          "internalType": "address",
          "name": "user",
          "type": "address"
        },
        {
          "indexed": false,
          "internalType": "uint256",
          "name": "id",
          "type": "uint256"
        }
      ],
      "name": "Order",
      "type": "event"
    },
    {
      "anonymous": false,
      "inputs": [
        {
          "indexed": true,
          "internalType": "address",
          "name": "user",
          "type": "address"
        },
        {
          "indexed": false,
          "internalType": "bytes32",
          "name": "name",
          "type": "bytes32"
        }
      ],
      "name": "SignUp",
      "type": "event"
    },
    {
      "inputs": [
        {
          "internalType": "address",
          "name": "_seller",
          "type": "address"
        }
      ],
      "name": "Orders",
      "outputs": [
        {
          "internalType": "uint32[]",
          "name": "orderId",
          "type": "uint32[]"
        }
      ],
      "stateMutability": "view",
      "type": "function",
      "constant": true
    },
    {
      "inputs": [],
      "name": "currentOrderID",
      "outputs": [
        {
          "internalType": "uint256",
          "name": "",
          "type": "uint256"
        }
      ],
      "stateMutability": "view",
      "type": "function",
      "constant": true
    },
    {
      "inputs": [
        {
          "internalType": "uint32",
          "name": "_id",
          "type": "uint32"
        }
      ],
      "name": "marketOrder",
      "outputs": [
        {
          "internalType": "address",
          "name": "BuyerAddr",
          "type": "address"
        },
        {
          "internalType": "uint256",
          "name": "timeStamp",
          "type": "uint256"
        },
        {
          "internalType": "string",
          "name": "orderDetails",
          "type": "string"
        },
        {
          "internalType": "uint256",
          "name": "totalPrice",
          "type": "uint256"
        }
      ],
      "stateMutability": "view",
      "type": "function",
      "constant": true
    },
    {
      "inputs": [
        {
          "internalType": "uint32",
          "name": "_id",
          "type": "uint32"
        }
      ],
      "name": "product",
      "outputs": [
        {
          "internalType": "bytes32",
          "name": "itemName",
          "type": "bytes32"
        },
        {
          "internalType": "uint256",
          "name": "itemPrice",
          "type": "uint256"
        },
        {
          "internalType": "bytes32",
          "name": "itemBrand",
          "type": "bytes32"
        },
        {
          "internalType": "string",
          "name": "itemDetails",
          "type": "string"
        },
        {
          "internalType": "uint32",
          "name": "availableCount",
          "type": "uint32"
        },
        {
          "internalType": "string",
          "name": "imageUrl",
          "type": "string"
        }
      ],
      "stateMutability": "view",
      "type": "function",
      "constant": true
    },
    {
      "inputs": [
        {
          "internalType": "uint32",
          "name": "_o_id",
          "type": "uint32"
        },
        {
          "internalType": "uint32",
          "name": "_p_id",
          "type": "uint32"
        }
      ],
      "name": "productCount",
      "outputs": [
        {
          "internalType": "uint32",
          "name": "count",
          "type": "uint32"
        }
      ],
      "stateMutability": "view",
      "type": "function",
      "constant": true
    },
    {
      "inputs": [
        {
          "internalType": "uint32",
          "name": "_o_id",
          "type": "uint32"
        },
        {
          "internalType": "uint32",
          "name": "_p_id",
          "type": "uint32"
        }
      ],
      "name": "productOrder",
      "outputs": [
        {
          "internalType": "bool",
          "name": "isConfirmed",
          "type": "bool"
        },
        {
          "internalType": "bool",
          "name": "isRejected",
          "type": "bool"
        },
        {
          "internalType": "bool",
          "name": "isShipped",
          "type": "bool"
        },
        {
          "internalType": "bool",
          "name": "isCancelled",
          "type": "bool"
        },
        {
          "internalType": "bool",
          "name": "confirmDelivery",
          "type": "bool"
        }
      ],
      "stateMutability": "view",
      "type": "function",
      "constant": true
    },
    {
      "inputs": [
        {
          "internalType": "address",
          "name": "_seller",
          "type": "address"
        },
        {
          "internalType": "uint32",
          "name": "_o_id",
          "type": "uint32"
        }
      ],
      "name": "productsList",
      "outputs": [
        {
          "internalType": "uint32[]",
          "name": "prodId",
          "type": "uint32[]"
        }
      ],
      "stateMutability": "view",
      "type": "function",
      "constant": true
    },
    {
      "inputs": [
        {
          "internalType": "uint32",
          "name": "_id",
          "type": "uint32"
        }
      ],
      "name": "sellerProduct",
      "outputs": [
        {
          "internalType": "bytes32",
          "name": "itemName",
          "type": "bytes32"
        },
        {
          "internalType": "uint256",
          "name": "itemPrice",
          "type": "uint256"
        },
        {
          "internalType": "bytes32",
          "name": "itemBrand",
          "type": "bytes32"
        },
        {
          "internalType": "string",
          "name": "itemDetails",
          "type": "string"
        },
        {
          "internalType": "uint32",
          "name": "availableCount",
          "type": "uint32"
        },
        {
          "internalType": "string",
          "name": "imageUrl",
          "type": "string"
        }
      ],
      "stateMutability": "view",
      "type": "function",
      "constant": true
    },
    {
      "inputs": [],
      "name": "totalProductID",
      "outputs": [
        {
          "internalType": "uint256",
          "name": "",
          "type": "uint256"
        }
      ],
      "stateMutability": "view",
      "type": "function",
      "constant": true
    },
    {
      "inputs": [],
      "name": "userDetails",
      "outputs": [
        {
          "internalType": "bytes32",
          "name": "userName",
          "type": "bytes32"
        },
        {
          "internalType": "uint256",
          "name": "userContact",
          "type": "uint256"
        },
        {
          "internalType": "uint8",
          "name": "userGender",
          "type": "uint8"
        },
        {
          "internalType": "bytes32",
          "name": "userEmail",
          "type": "bytes32"
        },
        {
          "internalType": "string",
          "name": "userAddr",
          "type": "string"
        },
        {
          "internalType": "uint32[]",
          "name": "orders",
          "type": "uint32[]"
        },
        {
          "internalType": "uint8",
          "name": "userType",
          "type": "uint8"
        }
      ],
      "stateMutability": "view",
      "type": "function",
      "constant": true
    },
    {
      "inputs": [
        {
          "internalType": "address",
          "name": "_addr",
          "type": "address"
        }
      ],
      "name": "userOrderDetails",
      "outputs": [
        {
          "internalType": "bytes32",
          "name": "userName",
          "type": "bytes32"
        },
        {
          "internalType": "uint256",
          "name": "userContact",
          "type": "uint256"
        },
        {
          "internalType": "bytes32",
          "name": "userEmail",
          "type": "bytes32"
        },
        {
          "internalType": "string",
          "name": "userAddr",
          "type": "string"
        }
      ],
      "stateMutability": "view",
      "type": "function",
      "constant": true
    },
    {
      "inputs": [],
      "name": "checkUser",
      "outputs": [
        {
          "internalType": "uint256",
          "name": "status",
          "type": "uint256"
        }
      ],
      "stateMutability": "view",
      "type": "function",
      "constant": true
    },
    {
      "inputs": [
        {
          "internalType": "bytes32",
          "name": "_userName",
          "type": "bytes32"
        },
        {
          "internalType": "uint64",
          "name": "_userContact",
          "type": "uint64"
        },
        {
          "internalType": "uint8",
          "name": "_userGender",
          "type": "uint8"
        },
        {
          "internalType": "bytes32",
          "name": "_userEmail",
          "type": "bytes32"
        },
        {
          "internalType": "string",
          "name": "_userAddr",
          "type": "string"
        },
        {
          "internalType": "uint8",
          "name": "_type",
          "type": "uint8"
        }
      ],
      "name": "userSignup",
      "outputs": [],
      "stateMutability": "nonpayable",
      "type": "function"
    },
    {
      "inputs": [
        {
          "internalType": "bytes32",
          "name": "_itemName",
          "type": "bytes32"
        },
        {
          "internalType": "uint256",
          "name": "_itemPrice",
          "type": "uint256"
        },
        {
          "internalType": "uint32",
          "name": "_availableCount",
          "type": "uint32"
        },
        {
          "internalType": "string",
          "name": "_itemDetails",
          "type": "string"
        },
        {
          "internalType": "bytes32",
          "name": "_itemBrand",
          "type": "bytes32"
        },
        {
          "internalType": "string",
          "name": "_imageUrl",
          "type": "string"
        }
      ],
      "name": "addProduct",
      "outputs": [],
      "stateMutability": "nonpayable",
      "type": "function"
    },
    {
      "inputs": [
        {
          "internalType": "string",
          "name": "_orderDetails",
          "type": "string"
        },
        {
          "internalType": "uint32[]",
          "name": "_prodIds",
          "type": "uint32[]"
        },
        {
          "internalType": "uint32[]",
          "name": "_prodCounts",
          "type": "uint32[]"
        }
      ],
      "name": "createOrder",
      "outputs": [],
      "stateMutability": "nonpayable",
      "type": "function"
    },
    {
      "inputs": [
        {
          "internalType": "string",
          "name": "_orderDetails",
          "type": "string"
        },
        {
          "internalType": "uint32",
          "name": "_prodId",
          "type": "uint32"
        },
        {
          "internalType": "uint32",
          "name": "_prodCount",
          "type": "uint32"
        }
      ],
      "name": "order",
      "outputs": [],
      "stateMutability": "nonpayable",
      "type": "function"
    },
    {
      "inputs": [
        {
          "internalType": "uint32",
          "name": "_o_Id",
          "type": "uint32"
        },
        {
          "internalType": "uint32",
          "name": "_p_Id",
          "type": "uint32"
        }
      ],
      "name": "confirmOrder",
      "outputs": [],
      "stateMutability": "nonpayable",
      "type": "function"
    },
    {
      "inputs": [
        {
          "internalType": "uint32",
          "name": "_o_Id",
          "type": "uint32"
        },
        {
          "internalType": "uint32",
          "name": "_p_Id",
          "type": "uint32"
        }
      ],
      "name": "shipOrder",
      "outputs": [],
      "stateMutability": "nonpayable",
      "type": "function"
    },
    {
      "inputs": [
        {
          "internalType": "uint32",
          "name": "_o_Id",
          "type": "uint32"
        },
        {
          "internalType": "uint32",
          "name": "_p_Id",
          "type": "uint32"
        }
      ],
      "name": "confirmDelivery",
      "outputs": [],
      "stateMutability": "nonpayable",
      "type": "function"
    }
  ],
  "bytecode": "0x60806040523480156200001157600080fd5b5060405162004b6b38038062004b6b833981810160405281019062000037919062000131565b60016000800160006101000a81548163ffffffff021916908363ffffffff16021790555060016000800160046101000a81548163ffffffff021916908363ffffffff16021790555080600860006101000a81548173ffffffffffffffffffffffffffffffffffffffff021916908373ffffffffffffffffffffffffffffffffffffffff1602179055505062000163565b600080fd5b600073ffffffffffffffffffffffffffffffffffffffff82169050919050565b6000620000f982620000cc565b9050919050565b6200010b81620000ec565b81146200011757600080fd5b50565b6000815190506200012b8162000100565b92915050565b6000602082840312156200014a5762000149620000c7565b5b60006200015a848285016200011a565b91505092915050565b6149f880620001736000396000f3fe608060405234801561001057600080fd5b50600436106101215760003560e01c80637e2885ae116100ad578063e568aab511610071578063e568aab51461032a578063e7767bd91461035a578063ef1645c71461038f578063f65633bd146103ab578063f85ff9f9146103c957610121565b80637e2885ae1461029c578063961e2912146102b8578063a8e695ec146102d4578063c1562547146102f0578063d34289131461030e57610121565b806333a2ff9d116100f457806333a2ff9d146101c35780634385bc9a146101f7578063543aa89a1461022757806359c5be69146102435780637b931cf31461027857610121565b80631b13012b1461012657806328565974146101425780632df50d65146101725780632ec7e44d146101a5575b600080fd5b610140600480360381019061013b9190613a54565b6103fc565b005b61015c60048036038101906101579190613af2565b6107b6565b6040516101699190613bdd565b60405180910390f35b61018c60048036038101906101879190613bff565b61087c565b60405161019c9493929190613ced565b60405180910390f35b6101ad6109d4565b6040516101ba9190613d39565b60405180910390f35b6101dd60048036038101906101d89190613a54565b6109f6565b6040516101ee959493929190613d6f565b60405180910390f35b610211600480360381019061020c9190613dc2565b610ba1565b60405161021e9190613bdd565b60405180910390f35b610241600480360381019061023c9190613a54565b610c85565b005b61025d60048036038101906102589190613bff565b61103f565b60405161026f96959493929190613e2a565b60405180910390f35b610280611269565b6040516102939796959493929190613eb5565b60405180910390f35b6102b660048036038101906102b19190613fef565b6115c9565b005b6102d260048036038101906102cd9190613a54565b611926565b005b6102ee60048036038101906102e9919061412a565b611c81565b005b6102f8611f57565b6040516103059190613d39565b60405180910390f35b610328600480360381019061032391906141d9565b61204b565b005b610344600480360381019061033f9190613a54565b6128c7565b604051610351919061424d565b60405180910390f35b610374600480360381019061036f9190613bff565b612920565b60405161038696959493929190613e2a565b60405180910390f35b6103a960048036038101906103a491906142be565b612bc7565b005b6103b361376f565b6040516103c09190613d39565b60405180910390f35b6103e360048036038101906103de9190613af2565b613791565b6040516103f39493929190614372565b60405180910390f35b6002600060020160003373ffffffffffffffffffffffffffffffffffffffff1673ffffffffffffffffffffffffffffffffffffffff16815260200190815260200160002060050160009054906101000a900460ff166002811115610463576104626143be565b5b146104a3576040517f08c379a000000000000000000000000000000000000000000000000000000000815260040161049a90614439565b60405180910390fd5b3373ffffffffffffffffffffffffffffffffffffffff16600060030160008363ffffffff1663ffffffff16815260200190815260200160002060060160009054906101000a900473ffffffffffffffffffffffffffffffffffffffff1673ffffffffffffffffffffffffffffffffffffffff1614610556576040517f08c379a000000000000000000000000000000000000000000000000000000000815260040161054d906144a5565b60405180910390fd5b60011515600060040160008463ffffffff1663ffffffff16815260200190815260200160002060040160008363ffffffff1663ffffffff16815260200190815260200160002060009054906101000a900460ff16151514801561060c575060001515600060040160008463ffffffff1663ffffffff16815260200190815260200160002060050160008363ffffffff1663ffffffff16815260200190815260200160002060009054906101000a900460ff161515145b801561066b575060001515600060040160008463ffffffff1663ffffffff16815260200190815260200160002060060160008363ffffffff1663ffffffff16815260200190815260200160002060009054906101000a900460ff161515145b80156106ca575060001515600060040160008463ffffffff1663ffffffff16815260200190815260200160002060090160008363ffffffff1663ffffffff16815260200190815260200160002060009054906101000a900460ff161515145b610709576040517f08c379a000000000000000000000000000000000000000000000000000000000815260040161070090614511565b60405180910390fd5b6001600060040160008463ffffffff1663ffffffff16815260200190815260200160002060050160008363ffffffff1663ffffffff16815260200190815260200160002060006101000a81548160ff0219169083151502179055503373ffffffffffffffffffffffffffffffffffffffff167fa6b197aaf445439d3f8ddf9792b000f4f184946885c82a07323ca010b9519c08836040516107aa919061456c565b60405180910390a25050565b6060600060050160008373ffffffffffffffffffffffffffffffffffffffff1673ffffffffffffffffffffffffffffffffffffffff16815260200190815260200160002080548060200260200160405190810160405280929190818152602001828054801561087057602002820191906000526020600020906000905b82829054906101000a900463ffffffff1663ffffffff16815260200190600401906020826003010492830192600103820291508084116108335790505b50505050509050919050565b600080606060008060040160008663ffffffff1663ffffffff16815260200190815260200160002060000160009054906101000a900473ffffffffffffffffffffffffffffffffffffffff16600060040160008763ffffffff1663ffffffff16815260200190815260200160002060010154600060040160008863ffffffff1663ffffffff168152602001908152602001600020600201600060040160008963ffffffff1663ffffffff16815260200190815260200160002060030154818054610945906145b6565b80601f0160208091040260200160405190810160405280929190818152602001828054610971906145b6565b80156109be5780601f10610993576101008083540402835291602001916109be565b820191906000526020600020905b8154815290600101906020018083116109a157829003601f168201915b5050505050915093509350935093509193509193565b60008060000160009054906101000a900463ffffffff1663ffffffff16905090565b60008060008060008060040160008863ffffffff1663ffffffff16815260200190815260200160002060050160008763ffffffff1663ffffffff16815260200190815260200160002060009054906101000a900460ff16600060040160008963ffffffff1663ffffffff16815260200190815260200160002060060160008863ffffffff1663ffffffff16815260200190815260200160002060009054906101000a900460ff16600060040160008a63ffffffff1663ffffffff16815260200190815260200160002060070160008963ffffffff1663ffffffff16815260200190815260200160002060009054906101000a900460ff16600060040160008b63ffffffff1663ffffffff16815260200190815260200160002060090160008a63ffffffff1663ffffffff16815260200190815260200160002060009054906101000a900460ff16600060040160008c63ffffffff1663ffffffff16815260200190815260200160002060080160008b63ffffffff1663ffffffff16815260200190815260200160002060009054906101000a900460ff16945094509450945094509295509295909350565b6060600060060160008473ffffffffffffffffffffffffffffffffffffffff1673ffffffffffffffffffffffffffffffffffffffff16815260200190815260200160002060008363ffffffff1663ffffffff168152602001908152602001600020805480602002602001604051908101604052809291908181526020018280548015610c7857602002820191906000526020600020906000905b82829054906101000a900463ffffffff1663ffffffff1681526020019060040190602082600301049283019260010382029150808411610c3b5790505b5050505050905092915050565b6002600060020160003373ffffffffffffffffffffffffffffffffffffffff1673ffffffffffffffffffffffffffffffffffffffff16815260200190815260200160002060050160009054906101000a900460ff166002811115610cec57610ceb6143be565b5b14610d2c576040517f08c379a0000000000000000000000000000000000000000000000000000000008152600401610d2390614439565b60405180910390fd5b3373ffffffffffffffffffffffffffffffffffffffff16600060030160008363ffffffff1663ffffffff16815260200190815260200160002060060160009054906101000a900473ffffffffffffffffffffffffffffffffffffffff1673ffffffffffffffffffffffffffffffffffffffff1614610ddf576040517f08c379a0000000000000000000000000000000000000000000000000000000008152600401610dd6906144a5565b60405180910390fd5b60011515600060040160008463ffffffff1663ffffffff16815260200190815260200160002060050160008363ffffffff1663ffffffff16815260200190815260200160002060009054906101000a900460ff161515148015610e95575060001515600060040160008463ffffffff1663ffffffff16815260200190815260200160002060070160008363ffffffff1663ffffffff16815260200190815260200160002060009054906101000a900460ff161515145b8015610ef4575060001515600060040160008463ffffffff1663ffffffff16815260200190815260200160002060060160008363ffffffff1663ffffffff16815260200190815260200160002060009054906101000a900460ff161515145b8015610f53575060001515600060040160008463ffffffff1663ffffffff16815260200190815260200160002060090160008363ffffffff1663ffffffff16815260200190815260200160002060009054906101000a900460ff161515145b610f92576040517f08c379a0000000000000000000000000000000000000000000000000000000008152600401610f8990614511565b60405180910390fd5b6001600060040160008463ffffffff1663ffffffff16815260200190815260200160002060070160008363ffffffff1663ffffffff16815260200190815260200160002060006101000a81548160ff0219169083151502179055503373ffffffffffffffffffffffffffffffffffffffff167fa6b197aaf445439d3f8ddf9792b000f4f184946885c82a07323ca010b9519c0883604051611033919061456c565b60405180910390a25050565b6000806000606060006060600060030160008863ffffffff1663ffffffff16815260200190815260200160002060000154600060030160008963ffffffff1663ffffffff16815260200190815260200160002060010154600060030160008a63ffffffff1663ffffffff16815260200190815260200160002060030154600060030160008b63ffffffff1663ffffffff168152602001908152602001600020600201600060030160008c63ffffffff1663ffffffff16815260200190815260200160002060040160009054906101000a900463ffffffff16600060030160008d63ffffffff1663ffffffff168152602001908152602001600020600501828054611148906145b6565b80601f0160208091040260200160405190810160405280929190818152602001828054611174906145b6565b80156111c15780601f10611196576101008083540402835291602001916111c1565b820191906000526020600020905b8154815290600101906020018083116111a457829003601f168201915b505050505092508080546111d4906145b6565b80601f0160208091040260200160405190810160405280929190818152602001828054611200906145b6565b801561124d5780601f106112225761010080835404028352916020019161124d565b820191906000526020600020905b81548152906001019060200180831161123057829003601f168201915b5050505050905095509550955095509550955091939550919395565b60008060008060608060008060020160003373ffffffffffffffffffffffffffffffffffffffff1673ffffffffffffffffffffffffffffffffffffffff16815260200190815260200160002060000154600060020160003373ffffffffffffffffffffffffffffffffffffffff1673ffffffffffffffffffffffffffffffffffffffff16815260200190815260200160002060010160009054906101000a900467ffffffffffffffff16600060020160003373ffffffffffffffffffffffffffffffffffffffff1673ffffffffffffffffffffffffffffffffffffffff16815260200190815260200160002060010160089054906101000a900460ff16600060020160003373ffffffffffffffffffffffffffffffffffffffff1673ffffffffffffffffffffffffffffffffffffffff16815260200190815260200160002060020154600060020160003373ffffffffffffffffffffffffffffffffffffffff1673ffffffffffffffffffffffffffffffffffffffff168152602001908152602001600020600301600060020160003373ffffffffffffffffffffffffffffffffffffffff1673ffffffffffffffffffffffffffffffffffffffff168152602001908152602001600020600401600060020160003373ffffffffffffffffffffffffffffffffffffffff1673ffffffffffffffffffffffffffffffffffffffff16815260200190815260200160002060050160009054906101000a900460ff16600281111561149b5761149a6143be565b5b8567ffffffffffffffff1695508280546114b4906145b6565b80601f01602080910402602001604051908101604052809291908181526020018280546114e0906145b6565b801561152d5780601f106115025761010080835404028352916020019161152d565b820191906000526020600020905b81548152906001019060200180831161151057829003601f168201915b50505050509250818054806020026020016040519081016040528092919081815260200182805480156115ab57602002820191906000526020600020906000905b82829054906101000a900463ffffffff1663ffffffff168152602001906004019060208260030104928301926001038202915080841161156e5790505b50505050509150965096509650965096509650965090919293949596565b6002600060020160003373ffffffffffffffffffffffffffffffffffffffff1673ffffffffffffffffffffffffffffffffffffffff16815260200190815260200160002060050160009054906101000a900460ff1660028111156116305761162f6143be565b5b14611670576040517f08c379a000000000000000000000000000000000000000000000000000000000815260040161166790614439565b60405180910390fd5b87600060030160008060000160009054906101000a900463ffffffff1663ffffffff1663ffffffff1681526020019081526020016000206000018190555086600060030160008060000160009054906101000a900463ffffffff1663ffffffff1663ffffffff168152602001908152602001600020600101819055508484600060030160008060000160009054906101000a900463ffffffff1663ffffffff1663ffffffff168152602001908152602001600020600201919061173492919061396b565b5085600060030160008060000160009054906101000a900463ffffffff1663ffffffff1663ffffffff16815260200190815260200160002060040160006101000a81548163ffffffff021916908363ffffffff16021790555082600060030160008060000160009054906101000a900463ffffffff1663ffffffff1663ffffffff168152602001908152602001600020600301819055508181600060030160008060000160009054906101000a900463ffffffff1663ffffffff1663ffffffff168152602001908152602001600020600501919061181392919061396b565b5033600060030160008060000160009054906101000a900463ffffffff1663ffffffff1663ffffffff16815260200190815260200160002060060160006101000a81548173ffffffffffffffffffffffffffffffffffffffff021916908373ffffffffffffffffffffffffffffffffffffffff16021790555060008001600081819054906101000a900463ffffffff16809291906118b090614616565b91906101000a81548163ffffffff021916908363ffffffff160217905550507fbb9f7a833e24c355e3782a8741a5f77f75b2f4067feef6acfe2d9fc04dd38690886000800160009054906101000a900463ffffffff16604051611914929190614642565b60405180910390a15050505050505050565b6001600060020160003373ffffffffffffffffffffffffffffffffffffffff1673ffffffffffffffffffffffffffffffffffffffff16815260200190815260200160002060050160009054906101000a900460ff16600281111561198d5761198c6143be565b5b146119cd576040517f08c379a00000000000000000000000000000000000000000000000000000000081526004016119c4906146b7565b60405180910390fd5b3373ffffffffffffffffffffffffffffffffffffffff16600060040160008463ffffffff1663ffffffff16815260200190815260200160002060000160009054906101000a900473ffffffffffffffffffffffffffffffffffffffff1673ffffffffffffffffffffffffffffffffffffffff1614611a80576040517f08c379a0000000000000000000000000000000000000000000000000000000008152600401611a7790614723565b60405180910390fd5b60011515600060040160008463ffffffff1663ffffffff16815260200190815260200160002060070160008363ffffffff1663ffffffff16815260200190815260200160002060009054906101000a900460ff161515148015611b36575060001515600060040160008463ffffffff1663ffffffff16815260200190815260200160002060080160008363ffffffff1663ffffffff16815260200190815260200160002060009054906101000a900460ff161515145b8015611b95575060001515600060040160008463ffffffff1663ffffffff16815260200190815260200160002060090160008363ffffffff1663ffffffff16815260200190815260200160002060009054906101000a900460ff161515145b611bd4576040517f08c379a0000000000000000000000000000000000000000000000000000000008152600401611bcb90614511565b60405180910390fd5b6001600060040160008463ffffffff1663ffffffff16815260200190815260200160002060080160008363ffffffff1663ffffffff16815260200190815260200160002060006101000a81548160ff0219169083151502179055503373ffffffffffffffffffffffffffffffffffffffff167fa6b197aaf445439d3f8ddf9792b000f4f184946885c82a07323ca010b9519c0883604051611c75919061456c565b60405180910390a25050565b6000611c8b611f57565b14611ccb576040517f08c379a0000000000000000000000000000000000000000000000000000000008152600401611cc29061478f565b60405180910390fd5b86600060020160003373ffffffffffffffffffffffffffffffffffffffff1673ffffffffffffffffffffffffffffffffffffffff1681526020019081526020016000206000018190555085600060020160003373ffffffffffffffffffffffffffffffffffffffff1673ffffffffffffffffffffffffffffffffffffffff16815260200190815260200160002060010160006101000a81548167ffffffffffffffff021916908367ffffffffffffffff16021790555084600060020160003373ffffffffffffffffffffffffffffffffffffffff1673ffffffffffffffffffffffffffffffffffffffff16815260200190815260200160002060010160086101000a81548160ff021916908360ff16021790555083600060020160003373ffffffffffffffffffffffffffffffffffffffff1673ffffffffffffffffffffffffffffffffffffffff168152602001908152602001600020600201819055508282600060020160003373ffffffffffffffffffffffffffffffffffffffff1673ffffffffffffffffffffffffffffffffffffffff1681526020019081526020016000206003019190611e7d92919061396b565b508060ff166002811115611e9457611e936143be565b5b600060020160003373ffffffffffffffffffffffffffffffffffffffff1673ffffffffffffffffffffffffffffffffffffffff16815260200190815260200160002060050160006101000a81548160ff02191690836002811115611efb57611efa6143be565b5b02179055503373ffffffffffffffffffffffffffffffffffffffff167fbacb0b7bc92d3e69edeb5d88c6776562a5d760d3ce3039382abce910b8bdd03d88604051611f4691906147af565b60405180910390a250505050505050565b60006002600060020160003373ffffffffffffffffffffffffffffffffffffffff1673ffffffffffffffffffffffffffffffffffffffff16815260200190815260200160002060050160009054906101000a900460ff166002811115611fc057611fbf6143be565b5b03611fce5760029050612048565b6001600060020160003373ffffffffffffffffffffffffffffffffffffffff1673ffffffffffffffffffffffffffffffffffffffff16815260200190815260200160002060050160009054906101000a900460ff166002811115612035576120346143be565b5b036120435760019050612048565b600090505b90565b6001600060020160003373ffffffffffffffffffffffffffffffffffffffff1673ffffffffffffffffffffffffffffffffffffffff16815260200190815260200160002060050160009054906101000a900460ff1660028111156120b2576120b16143be565b5b146120f2576040517f08c379a00000000000000000000000000000000000000000000000000000000081526004016120e9906146b7565b60405180910390fd5b60001515600060040160008060000160049054906101000a900463ffffffff1663ffffffff1663ffffffff16815260200190815260200160002060040160008463ffffffff1663ffffffff16815260200190815260200160002060009054906101000a900460ff1615151461216657600080fd5b8063ffffffff16600060030160008463ffffffff1663ffffffff16815260200190815260200160002060040160009054906101000a900463ffffffff1663ffffffff1610156121b457600080fd5b600060050160008060030160008563ffffffff1663ffffffff16815260200190815260200160002060060160009054906101000a900473ffffffffffffffffffffffffffffffffffffffff1673ffffffffffffffffffffffffffffffffffffffff1673ffffffffffffffffffffffffffffffffffffffff1681526020019081526020016000206000800160049054906101000a900463ffffffff1690806001815401808255809150506001900390600052602060002090600891828204019190066004029091909190916101000a81548163ffffffff021916908363ffffffff160217905550600060060160008060030160008563ffffffff1663ffffffff16815260200190815260200160002060060160009054906101000a900473ffffffffffffffffffffffffffffffffffffffff1673ffffffffffffffffffffffffffffffffffffffff1673ffffffffffffffffffffffffffffffffffffffff16815260200190815260200160002060008060000160049054906101000a900463ffffffff1663ffffffff1663ffffffff1681526020019081526020016000208290806001815401808255809150506001900390600052602060002090600891828204019190066004029091909190916101000a81548163ffffffff021916908363ffffffff16021790555080600060070160008060000160049054906101000a900463ffffffff1663ffffffff1663ffffffff16815260200190815260200160002060008463ffffffff1663ffffffff16815260200190815260200160002060006101000a81548163ffffffff021916908363ffffffff16021790555060008163ffffffff16600060030160008563ffffffff1663ffffffff1681526020019081526020016000206001015461244891906147ca565b905081600060030160008563ffffffff1663ffffffff16815260200190815260200160002060040160008282829054906101000a900463ffffffff1661248e9190614824565b92506101000a81548163ffffffff021916908363ffffffff1602179055506001600060040160008060000160049054906101000a900463ffffffff1663ffffffff1663ffffffff16815260200190815260200160002060040160008563ffffffff1663ffffffff16815260200190815260200160002060006101000a81548160ff02191690831515021790555033600060040160008060000160049054906101000a900463ffffffff1663ffffffff1663ffffffff16815260200190815260200160002060000160006101000a81548173ffffffffffffffffffffffffffffffffffffffff021916908373ffffffffffffffffffffffffffffffffffffffff16021790555042600060040160008060000160049054906101000a900463ffffffff1663ffffffff1663ffffffff168152602001908152602001600020600101819055508484600060040160008060000160049054906101000a900463ffffffff1663ffffffff1663ffffffff168152602001908152602001600020600201919061261992919061396b565b5080600060040160008060000160049054906101000a900463ffffffff1663ffffffff1663ffffffff16815260200190815260200160002060030181905550600060020160003373ffffffffffffffffffffffffffffffffffffffff1673ffffffffffffffffffffffffffffffffffffffff1681526020019081526020016000206004016000800160049054906101000a900463ffffffff1690806001815401808255809150506001900390600052602060002090600891828204019190066004029091909190916101000a81548163ffffffff021916908363ffffffff16021790555060008001600481819054906101000a900463ffffffff168092919061272190614616565b91906101000a81548163ffffffff021916908363ffffffff16021790555050600860009054906101000a900473ffffffffffffffffffffffffffffffffffffffff1673ffffffffffffffffffffffffffffffffffffffff1663beabacc833600060030160008763ffffffff1663ffffffff16815260200190815260200160002060060160009054906101000a900473ffffffffffffffffffffffffffffffffffffffff168563ffffffff16600060030160008963ffffffff1663ffffffff168152602001908152602001600020600101546127fc91906147ca565b6040518463ffffffff1660e01b815260040161281a939291906148ad565b6020604051808303816000875af1158015612839573d6000803e3d6000fd5b505050506040513d601f19601f8201168201806040525081019061285d9190614910565b503373ffffffffffffffffffffffffffffffffffffffff167fa6b197aaf445439d3f8ddf9792b000f4f184946885c82a07323ca010b9519c086000800160049054906101000a900463ffffffff166040516128b8919061456c565b60405180910390a25050505050565b60008060070160008463ffffffff1663ffffffff16815260200190815260200160002060008363ffffffff1663ffffffff16815260200190815260200160002060009054906101000a900463ffffffff16905092915050565b6000806000606060006060600060030160008863ffffffff1663ffffffff16815260200190815260200160002060060160009054906101000a900473ffffffffffffffffffffffffffffffffffffffff1673ffffffffffffffffffffffffffffffffffffffff163373ffffffffffffffffffffffffffffffffffffffff16146129a857600080fd5b600060030160008863ffffffff1663ffffffff16815260200190815260200160002060000154600060030160008963ffffffff1663ffffffff16815260200190815260200160002060010154600060030160008a63ffffffff1663ffffffff16815260200190815260200160002060030154600060030160008b63ffffffff1663ffffffff168152602001908152602001600020600201600060030160008c63ffffffff1663ffffffff16815260200190815260200160002060040160009054906101000a900463ffffffff16600060030160008d63ffffffff1663ffffffff168152602001908152602001600020600501828054612aa6906145b6565b80601f0160208091040260200160405190810160405280929190818152602001828054612ad2906145b6565b8015612b1f5780601f10612af457610100808354040283529160200191612b1f565b820191906000526020600020905b815481529060010190602001808311612b0257829003601f168201915b50505050509250808054612b32906145b6565b80601f0160208091040260200160405190810160405280929190818152602001828054612b5e906145b6565b8015612bab5780601f10612b8057610100808354040283529160200191612bab565b820191906000526020600020905b815481529060010190602001808311612b8e57829003601f168201915b5050505050905095509550955095509550955091939550919395565b6001600060020160003373ffffffffffffffffffffffffffffffffffffffff1673ffffffffffffffffffffffffffffffffffffffff16815260200190815260200160002060050160009054906101000a900460ff166002811115612c2e57612c2d6143be565b5b14612c6e576040517f08c379a0000000000000000000000000000000000000000000000000000000008152600401612c65906146b7565b60405180910390fd5b60005b848490508163ffffffff161015612dde5760001515600060040160008060000160049054906101000a900463ffffffff1663ffffffff1663ffffffff168152602001908152602001600020600401600087878563ffffffff16818110612cda57612cd961493d565b5b9050602002016020810190612cef9190613bff565b63ffffffff1663ffffffff16815260200190815260200160002060009054906101000a900460ff16151514612d2357600080fd5b82828263ffffffff16818110612d3c57612d3b61493d565b5b9050602002016020810190612d519190613bff565b63ffffffff166000600301600087878563ffffffff16818110612d7757612d7661493d565b5b9050602002016020810190612d8c9190613bff565b63ffffffff1663ffffffff16815260200190815260200160002060040160009054906101000a900463ffffffff1663ffffffff161015612dcb57600080fd5b8080612dd690614616565b915050612c71565b506000805b858590508163ffffffff1610156134de576000600501600080600301600089898663ffffffff16818110612e1a57612e1961493d565b5b9050602002016020810190612e2f9190613bff565b63ffffffff1663ffffffff16815260200190815260200160002060060160009054906101000a900473ffffffffffffffffffffffffffffffffffffffff1673ffffffffffffffffffffffffffffffffffffffff1673ffffffffffffffffffffffffffffffffffffffff1681526020019081526020016000206000800160049054906101000a900463ffffffff1690806001815401808255809150506001900390600052602060002090600891828204019190066004029091909190916101000a81548163ffffffff021916908363ffffffff1602179055506000600601600080600301600089898663ffffffff16818110612f2d57612f2c61493d565b5b9050602002016020810190612f429190613bff565b63ffffffff1663ffffffff16815260200190815260200160002060060160009054906101000a900473ffffffffffffffffffffffffffffffffffffffff1673ffffffffffffffffffffffffffffffffffffffff1673ffffffffffffffffffffffffffffffffffffffff16815260200190815260200160002060008060000160049054906101000a900463ffffffff1663ffffffff1663ffffffff16815260200190815260200160002086868363ffffffff168181106130045761300361493d565b5b90506020020160208101906130199190613bff565b90806001815401808255809150506001900390600052602060002090600891828204019190066004029091909190916101000a81548163ffffffff021916908363ffffffff16021790555083838263ffffffff1681811061307d5761307c61493d565b5b90506020020160208101906130929190613bff565b600060070160008060000160049054906101000a900463ffffffff1663ffffffff1663ffffffff168152602001908152602001600020600088888563ffffffff168181106130e3576130e261493d565b5b90506020020160208101906130f89190613bff565b63ffffffff1663ffffffff16815260200190815260200160002060006101000a81548163ffffffff021916908363ffffffff16021790555083838263ffffffff168181106131495761314861493d565b5b905060200201602081019061315e9190613bff565b63ffffffff166000600301600088888563ffffffff168181106131845761318361493d565b5b90506020020160208101906131999190613bff565b63ffffffff1663ffffffff168152602001908152602001600020600101546131c191906147ca565b826131cc919061496c565b9150600860009054906101000a900473ffffffffffffffffffffffffffffffffffffffff1673ffffffffffffffffffffffffffffffffffffffff1663beabacc833600060030160008a8a8763ffffffff1681811061322d5761322c61493d565b5b90506020020160208101906132429190613bff565b63ffffffff1663ffffffff16815260200190815260200160002060060160009054906101000a900473ffffffffffffffffffffffffffffffffffffffff1687878663ffffffff168181106132995761329861493d565b5b90506020020160208101906132ae9190613bff565b63ffffffff16600060030160008c8c8963ffffffff168181106132d4576132d361493d565b5b90506020020160208101906132e99190613bff565b63ffffffff1663ffffffff1681526020019081526020016000206001015461331191906147ca565b6040518463ffffffff1660e01b815260040161332f939291906148ad565b6020604051808303816000875af115801561334e573d6000803e3d6000fd5b505050506040513d601f19601f820116820180604052508101906133729190614910565b5083838263ffffffff1681811061338c5761338b61493d565b5b90506020020160208101906133a19190613bff565b6000600301600088888563ffffffff168181106133c1576133c061493d565b5b90506020020160208101906133d69190613bff565b63ffffffff1663ffffffff16815260200190815260200160002060040160008282829054906101000a900463ffffffff166134119190614824565b92506101000a81548163ffffffff021916908363ffffffff1602179055506001600060040160008060000160049054906101000a900463ffffffff1663ffffffff1663ffffffff168152602001908152602001600020600401600088888563ffffffff168181106134855761348461493d565b5b905060200201602081019061349a9190613bff565b63ffffffff1663ffffffff16815260200190815260200160002060006101000a81548160ff02191690831515021790555080806134d690614616565b915050612de3565b5033600060040160008060000160049054906101000a900463ffffffff1663ffffffff1663ffffffff16815260200190815260200160002060000160006101000a81548173ffffffffffffffffffffffffffffffffffffffff021916908373ffffffffffffffffffffffffffffffffffffffff16021790555042600060040160008060000160049054906101000a900463ffffffff1663ffffffff1663ffffffff168152602001908152602001600020600101819055508686600060040160008060000160049054906101000a900463ffffffff1663ffffffff1663ffffffff16815260200190815260200160002060020191906135dd92919061396b565b5080600060040160008060000160049054906101000a900463ffffffff1663ffffffff1663ffffffff16815260200190815260200160002060030181905550600060020160003373ffffffffffffffffffffffffffffffffffffffff1673ffffffffffffffffffffffffffffffffffffffff1681526020019081526020016000206004016000800160049054906101000a900463ffffffff1690806001815401808255809150506001900390600052602060002090600891828204019190066004029091909190916101000a81548163ffffffff021916908363ffffffff16021790555060008001600481819054906101000a900463ffffffff16809291906136e590614616565b91906101000a81548163ffffffff021916908363ffffffff160217905550503373ffffffffffffffffffffffffffffffffffffffff167fa6b197aaf445439d3f8ddf9792b000f4f184946885c82a07323ca010b9519c086000800160049054906101000a900463ffffffff1660405161375e919061456c565b60405180910390a250505050505050565b60008060000160049054906101000a900463ffffffff1663ffffffff16905090565b60008060006060600060020160008673ffffffffffffffffffffffffffffffffffffffff1673ffffffffffffffffffffffffffffffffffffffff16815260200190815260200160002060000154600060020160008773ffffffffffffffffffffffffffffffffffffffff1673ffffffffffffffffffffffffffffffffffffffff16815260200190815260200160002060010160009054906101000a900467ffffffffffffffff16600060020160008873ffffffffffffffffffffffffffffffffffffffff1673ffffffffffffffffffffffffffffffffffffffff16815260200190815260200160002060020154600060020160008973ffffffffffffffffffffffffffffffffffffffff1673ffffffffffffffffffffffffffffffffffffffff1681526020019081526020016000206003018267ffffffffffffffff1692508080546138dc906145b6565b80601f0160208091040260200160405190810160405280929190818152602001828054613908906145b6565b80156139555780601f1061392a57610100808354040283529160200191613955565b820191906000526020600020905b81548152906001019060200180831161393857829003601f168201915b5050505050905093509350935093509193509193565b828054613977906145b6565b90600052602060002090601f01602090048101928261399957600085556139e0565b82601f106139b257803560ff19168380011785556139e0565b828001600101855582156139e0579182015b828111156139df5782358255916020019190600101906139c4565b5b5090506139ed91906139f1565b5090565b5b80821115613a0a5760008160009055506001016139f2565b5090565b600080fd5b600080fd5b600063ffffffff82169050919050565b613a3181613a18565b8114613a3c57600080fd5b50565b600081359050613a4e81613a28565b92915050565b60008060408385031215613a6b57613a6a613a0e565b5b6000613a7985828601613a3f565b9250506020613a8a85828601613a3f565b9150509250929050565b600073ffffffffffffffffffffffffffffffffffffffff82169050919050565b6000613abf82613a94565b9050919050565b613acf81613ab4565b8114613ada57600080fd5b50565b600081359050613aec81613ac6565b92915050565b600060208284031215613b0857613b07613a0e565b5b6000613b1684828501613add565b91505092915050565b600081519050919050565b600082825260208201905092915050565b6000819050602082019050919050565b613b5481613a18565b82525050565b6000613b668383613b4b565b60208301905092915050565b6000602082019050919050565b6000613b8a82613b1f565b613b948185613b2a565b9350613b9f83613b3b565b8060005b83811015613bd0578151613bb78882613b5a565b9750613bc283613b72565b925050600181019050613ba3565b5085935050505092915050565b60006020820190508181036000830152613bf78184613b7f565b905092915050565b600060208284031215613c1557613c14613a0e565b5b6000613c2384828501613a3f565b91505092915050565b613c3581613ab4565b82525050565b6000819050919050565b613c4e81613c3b565b82525050565b600081519050919050565b600082825260208201905092915050565b60005b83811015613c8e578082015181840152602081019050613c73565b83811115613c9d576000848401525b50505050565b6000601f19601f8301169050919050565b6000613cbf82613c54565b613cc98185613c5f565b9350613cd9818560208601613c70565b613ce281613ca3565b840191505092915050565b6000608082019050613d026000830187613c2c565b613d0f6020830186613c45565b8181036040830152613d218185613cb4565b9050613d306060830184613c45565b95945050505050565b6000602082019050613d4e6000830184613c45565b92915050565b60008115159050919050565b613d6981613d54565b82525050565b600060a082019050613d846000830188613d60565b613d916020830187613d60565b613d9e6040830186613d60565b613dab6060830185613d60565b613db86080830184613d60565b9695505050505050565b60008060408385031215613dd957613dd8613a0e565b5b6000613de785828601613add565b9250506020613df885828601613a3f565b9150509250929050565b6000819050919050565b613e1581613e02565b82525050565b613e2481613a18565b82525050565b600060c082019050613e3f6000830189613e0c565b613e4c6020830188613c45565b613e596040830187613e0c565b8181036060830152613e6b8186613cb4565b9050613e7a6080830185613e1b565b81810360a0830152613e8c8184613cb4565b9050979650505050505050565b600060ff82169050919050565b613eaf81613e99565b82525050565b600060e082019050613eca600083018a613e0c565b613ed76020830189613c45565b613ee46040830188613ea6565b613ef16060830187613e0c565b8181036080830152613f038186613cb4565b905081810360a0830152613f178185613b7f565b9050613f2660c0830184613ea6565b98975050505050505050565b613f3b81613e02565b8114613f4657600080fd5b50565b600081359050613f5881613f32565b92915050565b613f6781613c3b565b8114613f7257600080fd5b50565b600081359050613f8481613f5e565b92915050565b600080fd5b600080fd5b600080fd5b60008083601f840112613faf57613fae613f8a565b5b8235905067ffffffffffffffff811115613fcc57613fcb613f8f565b5b602083019150836001820283011115613fe857613fe7613f94565b5b9250929050565b60008060008060008060008060c0898b03121561400f5761400e613a0e565b5b600061401d8b828c01613f49565b985050602061402e8b828c01613f75565b975050604061403f8b828c01613a3f565b965050606089013567ffffffffffffffff8111156140605761405f613a13565b5b61406c8b828c01613f99565b9550955050608061407f8b828c01613f49565b93505060a089013567ffffffffffffffff8111156140a05761409f613a13565b5b6140ac8b828c01613f99565b92509250509295985092959890939650565b600067ffffffffffffffff82169050919050565b6140db816140be565b81146140e657600080fd5b50565b6000813590506140f8816140d2565b92915050565b61410781613e99565b811461411257600080fd5b50565b600081359050614124816140fe565b92915050565b600080600080600080600060c0888a03121561414957614148613a0e565b5b60006141578a828b01613f49565b97505060206141688a828b016140e9565b96505060406141798a828b01614115565b955050606061418a8a828b01613f49565b945050608088013567ffffffffffffffff8111156141ab576141aa613a13565b5b6141b78a828b01613f99565b935093505060a06141ca8a828b01614115565b91505092959891949750929550565b600080600080606085870312156141f3576141f2613a0e565b5b600085013567ffffffffffffffff81111561421157614210613a13565b5b61421d87828801613f99565b9450945050602061423087828801613a3f565b925050604061424187828801613a3f565b91505092959194509250565b60006020820190506142626000830184613e1b565b92915050565b60008083601f84011261427e5761427d613f8a565b5b8235905067ffffffffffffffff81111561429b5761429a613f8f565b5b6020830191508360208202830111156142b7576142b6613f94565b5b9250929050565b600080600080600080606087890312156142db576142da613a0e565b5b600087013567ffffffffffffffff8111156142f9576142f8613a13565b5b61430589828a01613f99565b9650965050602087013567ffffffffffffffff81111561432857614327613a13565b5b61433489828a01614268565b9450945050604087013567ffffffffffffffff81111561435757614356613a13565b5b61436389828a01614268565b92509250509295509295509295565b60006080820190506143876000830187613e0c565b6143946020830186613c45565b6143a16040830185613e0c565b81810360608301526143b38184613cb4565b905095945050505050565b7f4e487b7100000000000000000000000000000000000000000000000000000000600052602160045260246000fd5b7f6f6e6c792073656c6c6572000000000000000000000000000000000000000000600082015250565b6000614423600b83613c5f565b915061442e826143ed565b602082019050919050565b6000602082019050818103600083015261445281614416565b9050919050565b7f4f6e6c792053656c6c6572000000000000000000000000000000000000000000600082015250565b600061448f600b83613c5f565b915061449a82614459565b602082019050919050565b600060208201905081810360008301526144be81614482565b9050919050565b7f436f6e646974696f6e73206e6f74207361746973666965640000000000000000600082015250565b60006144fb601883613c5f565b9150614506826144c5565b602082019050919050565b6000602082019050818103600083015261452a816144ee565b9050919050565b6000819050919050565b600061455661455161454c84613a18565b614531565b613c3b565b9050919050565b6145668161453b565b82525050565b6000602082019050614581600083018461455d565b92915050565b7f4e487b7100000000000000000000000000000000000000000000000000000000600052602260045260246000fd5b600060028204905060018216806145ce57607f821691505b6020821081036145e1576145e0614587565b5b50919050565b7f4e487b7100000000000000000000000000000000000000000000000000000000600052601160045260246000fd5b600061462182613a18565b915063ffffffff8203614637576146366145e7565b5b600182019050919050565b60006040820190506146576000830185613e0c565b614664602083018461455d565b9392505050565b7f6f6e6c7920627579657200000000000000000000000000000000000000000000600082015250565b60006146a1600a83613c5f565b91506146ac8261466b565b602082019050919050565b600060208201905081810360008301526146d081614694565b9050919050565b7f4f6e6c7920427579657200000000000000000000000000000000000000000000600082015250565b600061470d600a83613c5f565b9150614718826146d7565b602082019050919050565b6000602082019050818103600083015261473c81614700565b9050919050565b7f4e6f742061206e65772055736572000000000000000000000000000000000000600082015250565b6000614779600e83613c5f565b915061478482614743565b602082019050919050565b600060208201905081810360008301526147a88161476c565b9050919050565b60006020820190506147c46000830184613e0c565b92915050565b60006147d582613c3b565b91506147e083613c3b565b9250817fffffffffffffffffffffffffffffffffffffffffffffffffffffffffffffffff0483118215151615614819576148186145e7565b5b828202905092915050565b600061482f82613a18565b915061483a83613a18565b92508282101561484d5761484c6145e7565b5b828203905092915050565b600061487361486e61486984613a94565b614531565b613a94565b9050919050565b600061488582614858565b9050919050565b60006148978261487a565b9050919050565b6148a78161488c565b82525050565b60006060820190506148c26000830186613c2c565b6148cf602083018561489e565b6148dc6040830184613c45565b949350505050565b6148ed81613d54565b81146148f857600080fd5b50565b60008151905061490a816148e4565b92915050565b60006020828403121561492657614925613a0e565b5b6000614934848285016148fb565b91505092915050565b7f4e487b7100000000000000000000000000000000000000000000000000000000600052603260045260246000fd5b600061497782613c3b565b915061498283613c3b565b9250827fffffffffffffffffffffffffffffffffffffffffffffffffffffffffffffffff038211156149b7576149b66145e7565b5b82820190509291505056fea2646970667358221220693b92b7012e55bd3fc0665ad008ca52ba7004f6769b51b50409dfdd297eef7664736f6c634300080d0033",
  "immutableReferences": {},
  "source": "// SPDX-License-Identifier: MIT\r\npragma solidity ^0.8.13;\r\nimport './Library.sol';\r\nimport './Read.sol';\r\nimport './Token.sol';\r\n\r\ncontract Cart is Read {\r\n\taddress TOKEN;\r\n\tconstructor(address _token) {\r\n\t\tMODEL.P_ID = 1;\r\n\t\tMODEL.O_ID = 1;\r\n\t\tTOKEN = _token;\r\n\t}\r\n\r\n\tevent SignUp(address indexed user, bytes32 name);\r\n    event AddItem(bytes32 user, uint256 product_id);\r\n    event Order(address indexed user, uint256 id);\r\n\r\n\tfunction checkUser() public view returns (uint256 status) {\r\n        if (uint256(MODEL.Users[msg.sender].userType) == 2) {\r\n            return 2;\r\n        } else if (uint256(MODEL.Users[msg.sender].userType) == 1) {\r\n            return 1;\r\n        } \r\n        return 0;\r\n    }\r\n\r\n\tmodifier newUser() {\r\n        require(checkUser() == 0, \"Not a new User\");\r\n        _;\r\n    }\r\n\r\n\tfunction userSignup(\r\n        bytes32 _userName,\r\n        uint64 _userContact,\r\n        uint8 _userGender,\r\n        bytes32 _userEmail,\r\n        string calldata _userAddr,\r\n        uint8 _type) external newUser() {\r\n        MODEL.Users[msg.sender].userName = _userName;\r\n        MODEL.Users[msg.sender].userContact = _userContact;\r\n        MODEL.Users[msg.sender].userGender = _userGender;\r\n        MODEL.Users[msg.sender].userEmail = _userEmail;\r\n        MODEL.Users[msg.sender].userAddr = _userAddr;\r\n        MODEL.Users[msg.sender].userType = Enums.UserType(_type);\r\n        emit SignUp(msg.sender, _userName);\r\n    }\r\n\r\n    function addProduct(\r\n        bytes32 _itemName,\r\n        uint256 _itemPrice,\r\n        uint32 _availableCount,\r\n        string calldata _itemDetails,\r\n        bytes32 _itemBrand,\r\n        string calldata _imageUrl\r\n    ) external onlySeller {\r\n        MODEL.Product[MODEL.P_ID].itemName = _itemName;\r\n        MODEL.Product[MODEL.P_ID].itemPrice = _itemPrice;\r\n        MODEL.Product[MODEL.P_ID].itemDetails = _itemDetails;\r\n        MODEL.Product[MODEL.P_ID].availableCount = _availableCount;\r\n        MODEL.Product[MODEL.P_ID].itemBrand = _itemBrand;\r\n        MODEL.Product[MODEL.P_ID].imageUrl = _imageUrl;\r\n        MODEL.Product[MODEL.P_ID].seller = payable(msg.sender);\r\n        MODEL.P_ID++;\r\n        emit AddItem(_itemName, MODEL.P_ID);\r\n    }\r\n\r\n    function createOrder(\r\n        string calldata _orderDetails,\r\n        uint32[] calldata _prodIds,\r\n        uint32[] calldata _prodCounts\r\n    ) external onlyBuyer {\r\n        for(uint32 i = 0; i < _prodIds.length; i++) {\r\n            require(MODEL.MarketOrder[MODEL.O_ID].isOrdered[_prodIds[i]] == false);\r\n            require(MODEL.Product[_prodIds[i]].availableCount >= _prodCounts[i]);\r\n        }\r\n    \r\n        uint256 total = 0;\r\n        for (uint32 i = 0; i < _prodIds.length; i++) {\r\n            MODEL.orderList[MODEL.Product[_prodIds[i]].seller].push(MODEL.O_ID);\r\n            MODEL.prodList[MODEL.Product[_prodIds[i]].seller][MODEL.O_ID].push(_prodIds[i]);\r\n            MODEL.prodTotal[MODEL.O_ID][_prodIds[i]] = _prodCounts[i];\r\n            total += MODEL.Product[_prodIds[i]].itemPrice * _prodCounts[i];\r\n\t\t\tToken(TOKEN).transfer(msg.sender, MODEL.Product[_prodIds[i]].seller, MODEL.Product[_prodIds[i]].itemPrice * _prodCounts[i]);\r\n            MODEL.Product[_prodIds[i]].availableCount -= _prodCounts[i];\r\n            MODEL.MarketOrder[MODEL.O_ID].isOrdered[_prodIds[i]] = true;\r\n        }\r\n\r\n        MODEL.MarketOrder[MODEL.O_ID].BuyerAddr = payable(msg.sender);\r\n        MODEL.MarketOrder[MODEL.O_ID].timeStamp = block.timestamp;\r\n        MODEL.MarketOrder[MODEL.O_ID].orderDetails = _orderDetails;\r\n        MODEL.MarketOrder[MODEL.O_ID].totalPrice = total;\r\n        MODEL.Users[msg.sender].orders.push(MODEL.O_ID);\r\n        MODEL.O_ID++;\r\n        // ISpecToken(TOKEN).sendTokens(total, msg.sender);\r\n\t\t// TOKEN.transfer()\r\n        emit Order(msg.sender, MODEL.O_ID);\r\n    }\r\n\r\n    function order(\r\n        string calldata _orderDetails,\r\n        uint32 _prodId,\r\n        uint32 _prodCount\r\n    ) external onlyBuyer {\r\n        require(MODEL.MarketOrder[MODEL.O_ID].isOrdered[_prodId] == false);\r\n        require(MODEL.Product[_prodId].availableCount >= _prodCount);\r\n\r\n        MODEL.orderList[MODEL.Product[_prodId].seller].push(MODEL.O_ID);\r\n        MODEL.prodList[MODEL.Product[_prodId].seller][MODEL.O_ID].push(_prodId);\r\n        MODEL.prodTotal[MODEL.O_ID][_prodId] = _prodCount;\r\n        uint256 total = MODEL.Product[_prodId].itemPrice * _prodCount;\r\n        \r\n        MODEL.Product[_prodId].availableCount -= _prodCount;\r\n        MODEL.MarketOrder[MODEL.O_ID].isOrdered[_prodId] = true;\r\n\r\n        MODEL.MarketOrder[MODEL.O_ID].BuyerAddr = payable(msg.sender);\r\n        MODEL.MarketOrder[MODEL.O_ID].timeStamp = block.timestamp;\r\n        MODEL.MarketOrder[MODEL.O_ID].orderDetails = _orderDetails;\r\n        MODEL.MarketOrder[MODEL.O_ID].totalPrice = total;\r\n        MODEL.Users[msg.sender].orders.push(MODEL.O_ID);\r\n        MODEL.O_ID++;\r\n        Token(TOKEN).transfer(msg.sender, MODEL.Product[_prodId].seller, MODEL.Product[_prodId].itemPrice * _prodCount);\r\n        // ISpecToken(TOKEN).sendTokens(total, msg.sender);\r\n\t\t// TOKEN.transfer()\r\n        emit Order(msg.sender, MODEL.O_ID);\r\n    }\r\n\r\n    function confirmOrder(uint32 _o_Id, uint32 _p_Id) external onlySeller {\r\n        require(MODEL.Product[_p_Id].seller == msg.sender, \"Only Seller\");\r\n        require(\r\n            MODEL.MarketOrder[_o_Id].isOrdered[_p_Id] == true &&\r\n                MODEL.MarketOrder[_o_Id].isConfirmed[_p_Id] == false &&\r\n                MODEL.MarketOrder[_o_Id].isRejected[_p_Id] == false &&\r\n                MODEL.MarketOrder[_o_Id].isCancelled[_p_Id] == false,\r\n            \"Conditions not satisfied\"\r\n        );\r\n        MODEL.MarketOrder[_o_Id].isConfirmed[_p_Id] = true;\r\n        emit Order(msg.sender, _o_Id);\r\n    }\r\n\r\n    // function rejectOrder(uint32 _o_Id, uint32 _p_Id) external onlySeller {\r\n    //     require(MODEL.Product[_p_Id].seller == msg.sender, \"Only Seller\");\r\n    //     require(\r\n    //             MODEL.MarketOrder[_o_Id].isOrdered[_p_Id] == true &&\r\n    //             MODEL.MarketOrder[_o_Id].isConfirmed[_p_Id] == false &&\r\n    //             MODEL.MarketOrder[_o_Id].isRejected[_p_Id] == false &&\r\n    //             MODEL.MarketOrder[_o_Id].isDispute[_p_Id] == false &&\r\n    //             MODEL.MarketOrder[_o_Id].isCancelled[_p_Id] == false\r\n    //     );\r\n    //     cancel(_o_Id,_p_Id);\r\n    //     emit Order(msg.sender, _o_Id);\r\n    // }\r\n\r\n    function shipOrder(uint32 _o_Id, uint32 _p_Id) external onlySeller {\r\n        require(MODEL.Product[_p_Id].seller == msg.sender, \"Only Seller\");\r\n        require(\r\n            MODEL.MarketOrder[_o_Id].isConfirmed[_p_Id] == true &&\r\n                MODEL.MarketOrder[_o_Id].isShipped[_p_Id] == false &&\r\n                MODEL.MarketOrder[_o_Id].isRejected[_p_Id] == false &&\r\n                MODEL.MarketOrder[_o_Id].isCancelled[_p_Id] == false,\r\n            \"Conditions not satisfied\"\r\n        );\r\n        MODEL.MarketOrder[_o_Id].isShipped[_p_Id] = true;\r\n        emit Order(msg.sender, _o_Id);\r\n    }\r\n\r\n    function confirmDelivery(uint32 _o_Id, uint32 _p_Id) external onlyBuyer {\r\n        require(MODEL.MarketOrder[_o_Id].BuyerAddr == msg.sender, \"Only Buyer\");\r\n        require(\r\n            MODEL.MarketOrder[_o_Id].isShipped[_p_Id] == true &&\r\n                MODEL.MarketOrder[_o_Id].confirmDelivery[_p_Id] == false &&\r\n                MODEL.MarketOrder[_o_Id].isCancelled[_p_Id] == false,\r\n            \"Conditions not satisfied\"\r\n        );\r\n        MODEL.MarketOrder[_o_Id].confirmDelivery[_p_Id] = true;\r\n        \r\n        emit Order(msg.sender, _o_Id);\r\n    }\r\n\r\n    // function cancel(uint32 _o_Id, uint32 _p_Id) private {\r\n    //     MODEL.MarketOrder[_o_Id].isCancelled[_p_Id] = true;\r\n    //     ISpecToken(TOKEN).collectTokens(\r\n    //         SPEC.Product[_p_Id].itemPrice.add(SPEC.Product[_p_Id].disputePrice),\r\n    //         msg.sender\r\n    //     );\r\n    //     SPEC.Product[_p_Id].availableCount += SPEC.prodTotal[_o_Id][_p_Id];\r\n    // }\r\n}",
  "sourcePath": "C:\\Users\\Dell\\Desktop\\Dcart\\eth\\contracts\\Cart.sol",
  "compiler": {
    "name": "solc",
    "version": "0.8.13+commit.abaa5c0e.Emscripten.clang"
  },
  "schemaVersion": "3.4.7",
  "updatedAt": "2022-07-17T19:01:00.455Z",
  "networkType": "ethereum",
  "devdoc": {
    "kind": "dev",
    "methods": {},
    "version": 1
  },
  "userdoc": {
    "kind": "user",
    "methods": {},
    "version": 1
  }
}