{
  "contractName": "myToken",
  "abi": [
    {
      "inputs": [
        {
          "internalType": "uint256",
          "name": "total",
          "type": "uint256"
        }
      ],
      "stateMutability": "nonpayable",
      "type": "constructor"
    },
    {
      "anonymous": false,
      "inputs": [
        {
          "indexed": true,
          "internalType": "address",
          "name": "tokenOwner",
          "type": "address"
        },
        {
          "indexed": true,
          "internalType": "address",
          "name": "sepnder",
          "type": "address"
        },
        {
          "indexed": false,
          "internalType": "uint256",
          "name": "tokens",
          "type": "uint256"
        }
      ],
      "name": "Approval",
      "type": "event"
    },
    {
      "anonymous": false,
      "inputs": [
        {
          "indexed": true,
          "internalType": "address",
          "name": "from",
          "type": "address"
        },
        {
          "indexed": true,
          "internalType": "address",
          "name": "to",
          "type": "address"
        },
        {
          "indexed": false,
          "internalType": "uint256",
          "name": "tokens",
          "type": "uint256"
        }
      ],
      "name": "Transfer",
      "type": "event"
    },
    {
      "inputs": [],
      "name": "decimal",
      "outputs": [
        {
          "internalType": "uint8",
          "name": "",
          "type": "uint8"
        }
      ],
      "stateMutability": "view",
      "type": "function"
    },
    {
      "inputs": [],
      "name": "name",
      "outputs": [
        {
          "internalType": "string",
          "name": "",
          "type": "string"
        }
      ],
      "stateMutability": "view",
      "type": "function"
    },
    {
      "inputs": [],
      "name": "symbol",
      "outputs": [
        {
          "internalType": "string",
          "name": "",
          "type": "string"
        }
      ],
      "stateMutability": "view",
      "type": "function"
    },
    {
      "inputs": [],
      "name": "totalSupply",
      "outputs": [
        {
          "internalType": "uint256",
          "name": "",
          "type": "uint256"
        }
      ],
      "stateMutability": "view",
      "type": "function"
    },
    {
      "inputs": [
        {
          "internalType": "address",
          "name": "tokenOwner",
          "type": "address"
        }
      ],
      "name": "balanceOf",
      "outputs": [
        {
          "internalType": "uint256",
          "name": "",
          "type": "uint256"
        }
      ],
      "stateMutability": "view",
      "type": "function"
    },
    {
      "inputs": [],
      "name": "tokensRemaining",
      "outputs": [
        {
          "internalType": "uint256",
          "name": "",
          "type": "uint256"
        }
      ],
      "stateMutability": "view",
      "type": "function"
    },
    {
      "inputs": [
        {
          "internalType": "address",
          "name": "reciever",
          "type": "address"
        },
        {
          "internalType": "uint256",
          "name": "numToken",
          "type": "uint256"
        }
      ],
      "name": "transfer",
      "outputs": [
        {
          "internalType": "bool",
          "name": "",
          "type": "bool"
        }
      ],
      "stateMutability": "nonpayable",
      "type": "function"
    },
    {
      "inputs": [
        {
          "internalType": "address",
          "name": "delegate",
          "type": "address"
        },
        {
          "internalType": "uint256",
          "name": "numToken",
          "type": "uint256"
        }
      ],
      "name": "approve",
      "outputs": [
        {
          "internalType": "bool",
          "name": "",
          "type": "bool"
        }
      ],
      "stateMutability": "nonpayable",
      "type": "function"
    },
    {
      "inputs": [
        {
          "internalType": "address",
          "name": "owner",
          "type": "address"
        },
        {
          "internalType": "address",
          "name": "delegate",
          "type": "address"
        }
      ],
      "name": "allowance",
      "outputs": [
        {
          "internalType": "uint256",
          "name": "",
          "type": "uint256"
        }
      ],
      "stateMutability": "view",
      "type": "function"
    },
    {
      "inputs": [
        {
          "internalType": "address",
          "name": "owner",
          "type": "address"
        },
        {
          "internalType": "address",
          "name": "buyer",
          "type": "address"
        },
        {
          "internalType": "uint256",
          "name": "numToken",
          "type": "uint256"
        }
      ],
      "name": "transferFrom",
      "outputs": [
        {
          "internalType": "bool",
          "name": "",
          "type": "bool"
        }
      ],
      "stateMutability": "nonpayable",
      "type": "function"
    },
    {
      "inputs": [
        {
          "internalType": "uint256",
          "name": "value",
          "type": "uint256"
        }
      ],
      "name": "mint",
      "outputs": [
        {
          "internalType": "bool",
          "name": "",
          "type": "bool"
        }
      ],
      "stateMutability": "nonpayable",
      "type": "function"
    },
    {
      "inputs": [
        {
          "internalType": "uint256",
          "name": "numberOfToken",
          "type": "uint256"
        }
      ],
      "name": "buyToken",
      "outputs": [],
      "stateMutability": "payable",
      "type": "function"
    }
  ],
  "bytecode": "0x6080604052600060035566038d7ea4c680006004553480156200002157600080fd5b50604051620013b5380380620013b583398181016040528101906200004791906200015c565b80600281905550600254600560003373ffffffffffffffffffffffffffffffffffffffff1673ffffffffffffffffffffffffffffffffffffffff16815260200190815260200160002081905550336000806101000a81548173ffffffffffffffffffffffffffffffffffffffff021916908373ffffffffffffffffffffffffffffffffffffffff16021790555030600160006101000a81548173ffffffffffffffffffffffffffffffffffffffff021916908373ffffffffffffffffffffffffffffffffffffffff160217905550506200018e565b600080fd5b6000819050919050565b620001368162000121565b81146200014257600080fd5b50565b60008151905062000156816200012b565b92915050565b6000602082840312156200017557620001746200011c565b5b6000620001858482850162000145565b91505092915050565b611217806200019e6000396000f3fe6080604052600436106100a75760003560e01c806376809ce31161006457806376809ce3146101d557806395d89b4114610200578063a0712d681461022b578063a9059cbb14610268578063c8b08125146102a5578063dd62ed3e146102d0576100a7565b806306fdde03146100ac578063095ea7b3146100d757806318160ddd1461011457806323b872dd1461013f5780632d296bf11461017c57806370a0823114610198575b600080fd5b3480156100b857600080fd5b506100c161030d565b6040516100ce9190610ea9565b60405180910390f35b3480156100e357600080fd5b506100fe60048036038101906100f99190610f64565b610346565b60405161010b9190610fbf565b60405180910390f35b34801561012057600080fd5b50610129610438565b6040516101369190610fe9565b60405180910390f35b34801561014b57600080fd5b5061016660048036038101906101619190611004565b610442565b6040516101739190610fbf565b60405180910390f35b61019660048036038101906101919190611057565b6107ad565b005b3480156101a457600080fd5b506101bf60048036038101906101ba9190611084565b610988565b6040516101cc9190610fe9565b60405180910390f35b3480156101e157600080fd5b506101ea6109d1565b6040516101f791906110cd565b60405180910390f35b34801561020c57600080fd5b506102156109d6565b6040516102229190610ea9565b60405180910390f35b34801561023757600080fd5b50610252600480360381019061024d9190611057565b610a0f565b60405161025f9190610fbf565b60405180910390f35b34801561027457600080fd5b5061028f600480360381019061028a9190610f64565b610b48565b60405161029c9190610fbf565b60405180910390f35b3480156102b157600080fd5b506102ba610d21565b6040516102c79190610fe9565b60405180910390f35b3480156102dc57600080fd5b506102f760048036038101906102f291906110e8565b610d89565b6040516103049190610fe9565b60405180910390f35b6040518060400160405280600681526020017f417368697368000000000000000000000000000000000000000000000000000081525081565b600081600660003373ffffffffffffffffffffffffffffffffffffffff1673ffffffffffffffffffffffffffffffffffffffff16815260200190815260200160002060008573ffffffffffffffffffffffffffffffffffffffff1673ffffffffffffffffffffffffffffffffffffffff168152602001908152602001600020819055508273ffffffffffffffffffffffffffffffffffffffff163373ffffffffffffffffffffffffffffffffffffffff167f8c5be1e5ebec7d5bd14f71427d1e84f3dd0314c0f7b2291e5b200ac8c7c3b925846040516104269190610fe9565b60405180910390a36001905092915050565b6000600254905090565b6000600560008573ffffffffffffffffffffffffffffffffffffffff1673ffffffffffffffffffffffffffffffffffffffff1681526020019081526020016000205482111561049057600080fd5b600660008573ffffffffffffffffffffffffffffffffffffffff1673ffffffffffffffffffffffffffffffffffffffff16815260200190815260200160002060008473ffffffffffffffffffffffffffffffffffffffff1673ffffffffffffffffffffffffffffffffffffffff1681526020019081526020016000205482111561051957600080fd5b81600560008673ffffffffffffffffffffffffffffffffffffffff1673ffffffffffffffffffffffffffffffffffffffff168152602001908152602001600020546105649190611157565b600560008673ffffffffffffffffffffffffffffffffffffffff1673ffffffffffffffffffffffffffffffffffffffff1681526020019081526020016000208190555081600660008673ffffffffffffffffffffffffffffffffffffffff1673ffffffffffffffffffffffffffffffffffffffff16815260200190815260200160002060008573ffffffffffffffffffffffffffffffffffffffff1673ffffffffffffffffffffffffffffffffffffffff1681526020019081526020016000205461062f9190611157565b600660008673ffffffffffffffffffffffffffffffffffffffff1673ffffffffffffffffffffffffffffffffffffffff16815260200190815260200160002060008573ffffffffffffffffffffffffffffffffffffffff1673ffffffffffffffffffffffffffffffffffffffff1681526020019081526020016000208190555081600560008673ffffffffffffffffffffffffffffffffffffffff1673ffffffffffffffffffffffffffffffffffffffff168152602001908152602001600020546106fa9190611157565b600560008573ffffffffffffffffffffffffffffffffffffffff1673ffffffffffffffffffffffffffffffffffffffff168152602001908152602001600020819055508273ffffffffffffffffffffffffffffffffffffffff168473ffffffffffffffffffffffffffffffffffffffff167fddf252ad1be2c89b69c2b068fc378daa952ba7f163c4a11628f55a4df523b3ef8460405161079a9190610fe9565b60405180910390a3600190509392505050565b80600560008060009054906101000a900473ffffffffffffffffffffffffffffffffffffffff1673ffffffffffffffffffffffffffffffffffffffff1673ffffffffffffffffffffffffffffffffffffffff16815260200190815260200160002054101561081a57600080fd5b80600560008060009054906101000a900473ffffffffffffffffffffffffffffffffffffffff1673ffffffffffffffffffffffffffffffffffffffff1673ffffffffffffffffffffffffffffffffffffffff168152602001908152602001600020600082825461088a9190611157565b9250508190555080600560003373ffffffffffffffffffffffffffffffffffffffff1673ffffffffffffffffffffffffffffffffffffffff16815260200190815260200160002060008282546108e0919061118b565b9250508190555080600360008282546108f9919061118b565b925050819055503373ffffffffffffffffffffffffffffffffffffffff1660008054906101000a900473ffffffffffffffffffffffffffffffffffffffff1673ffffffffffffffffffffffffffffffffffffffff167fddf252ad1be2c89b69c2b068fc378daa952ba7f163c4a11628f55a4df523b3ef8360405161097d9190610fe9565b60405180910390a350565b6000600560008373ffffffffffffffffffffffffffffffffffffffff1673ffffffffffffffffffffffffffffffffffffffff168152602001908152602001600020549050919050565b601281565b6040518060400160405280600381526020017f415348000000000000000000000000000000000000000000000000000000000081525081565b60008060009054906101000a900473ffffffffffffffffffffffffffffffffffffffff1673ffffffffffffffffffffffffffffffffffffffff163373ffffffffffffffffffffffffffffffffffffffff1614610a6a57600080fd5b8160026000828254610a7c919061118b565b9250508190555081600560003373ffffffffffffffffffffffffffffffffffffffff1673ffffffffffffffffffffffffffffffffffffffff1681526020019081526020016000206000828254610ad2919061118b565b925050819055503373ffffffffffffffffffffffffffffffffffffffff16600073ffffffffffffffffffffffffffffffffffffffff167fddf252ad1be2c89b69c2b068fc378daa952ba7f163c4a11628f55a4df523b3ef84604051610b379190610fe9565b60405180910390a360019050919050565b6000600560003373ffffffffffffffffffffffffffffffffffffffff1673ffffffffffffffffffffffffffffffffffffffff16815260200190815260200160002054821115610b9657600080fd5b81600560003373ffffffffffffffffffffffffffffffffffffffff1673ffffffffffffffffffffffffffffffffffffffff16815260200190815260200160002054610be19190611157565b600560003373ffffffffffffffffffffffffffffffffffffffff1673ffffffffffffffffffffffffffffffffffffffff1681526020019081526020016000208190555081600560008573ffffffffffffffffffffffffffffffffffffffff1673ffffffffffffffffffffffffffffffffffffffff16815260200190815260200160002054610c6f919061118b565b600560008573ffffffffffffffffffffffffffffffffffffffff1673ffffffffffffffffffffffffffffffffffffffff168152602001908152602001600020819055508273ffffffffffffffffffffffffffffffffffffffff163373ffffffffffffffffffffffffffffffffffffffff167fddf252ad1be2c89b69c2b068fc378daa952ba7f163c4a11628f55a4df523b3ef84604051610d0f9190610fe9565b60405180910390a36001905092915050565b6000600560008060009054906101000a900473ffffffffffffffffffffffffffffffffffffffff1673ffffffffffffffffffffffffffffffffffffffff1673ffffffffffffffffffffffffffffffffffffffff16815260200190815260200160002054905090565b6000600660008473ffffffffffffffffffffffffffffffffffffffff1673ffffffffffffffffffffffffffffffffffffffff16815260200190815260200160002060008373ffffffffffffffffffffffffffffffffffffffff1673ffffffffffffffffffffffffffffffffffffffff16815260200190815260200160002054905092915050565b600081519050919050565b600082825260208201905092915050565b60005b83811015610e4a578082015181840152602081019050610e2f565b83811115610e59576000848401525b50505050565b6000601f19601f8301169050919050565b6000610e7b82610e10565b610e858185610e1b565b9350610e95818560208601610e2c565b610e9e81610e5f565b840191505092915050565b60006020820190508181036000830152610ec38184610e70565b905092915050565b600080fd5b600073ffffffffffffffffffffffffffffffffffffffff82169050919050565b6000610efb82610ed0565b9050919050565b610f0b81610ef0565b8114610f1657600080fd5b50565b600081359050610f2881610f02565b92915050565b6000819050919050565b610f4181610f2e565b8114610f4c57600080fd5b50565b600081359050610f5e81610f38565b92915050565b60008060408385031215610f7b57610f7a610ecb565b5b6000610f8985828601610f19565b9250506020610f9a85828601610f4f565b9150509250929050565b60008115159050919050565b610fb981610fa4565b82525050565b6000602082019050610fd46000830184610fb0565b92915050565b610fe381610f2e565b82525050565b6000602082019050610ffe6000830184610fda565b92915050565b60008060006060848603121561101d5761101c610ecb565b5b600061102b86828701610f19565b935050602061103c86828701610f19565b925050604061104d86828701610f4f565b9150509250925092565b60006020828403121561106d5761106c610ecb565b5b600061107b84828501610f4f565b91505092915050565b60006020828403121561109a57611099610ecb565b5b60006110a884828501610f19565b91505092915050565b600060ff82169050919050565b6110c7816110b1565b82525050565b60006020820190506110e260008301846110be565b92915050565b600080604083850312156110ff576110fe610ecb565b5b600061110d85828601610f19565b925050602061111e85828601610f19565b9150509250929050565b7f4e487b7100000000000000000000000000000000000000000000000000000000600052601160045260246000fd5b600061116282610f2e565b915061116d83610f2e565b9250828210156111805761117f611128565b5b828203905092915050565b600061119682610f2e565b91506111a183610f2e565b9250827fffffffffffffffffffffffffffffffffffffffffffffffffffffffffffffffff038211156111d6576111d5611128565b5b82820190509291505056fea26469706673582212200d2944458c4f05e8cf11003cbf5c52d6fd45d26b234afe8256c75374888308ee64736f6c634300080d0033",
  "immutableReferences": {},
  "source": "// SPDX-License-Identifier: MIT\r\npragma solidity ^0.8.13;\r\n\r\ncontract myToken {\r\n    string constant public name = \"Ashish\";\r\n    string constant public symbol = \"ASH\";\r\n    uint8 constant public decimal = 18;\r\n    address admin;\r\n    address self;\r\n    uint256 _totalSupply;\r\n    uint256 tokensSold = 0;\r\n    uint256 tokenPrice = 1000000000000000;\r\n\r\n    mapping(address => uint256)balances;\r\n    mapping(address => mapping(address => uint256)) allowed;\r\n\r\n\r\n    event Approval(address indexed tokenOwner, address indexed sepnder, uint tokens);\r\n    event Transfer(address indexed from, address indexed to, uint tokens);\r\n\r\n\r\n    constructor(uint256 total) {\r\n        _totalSupply = total;\r\n        balances[msg.sender] = _totalSupply;\r\n        admin = msg.sender;\r\n        self = address(this);\r\n    }\r\n\r\n    function totalSupply() public view returns (uint256) {\r\n        return _totalSupply;\r\n    }\r\n\r\n    function balanceOf(address tokenOwner) public view returns (uint) {\r\n        return balances[tokenOwner];\r\n    }\r\n\r\n    function tokensRemaining() public view returns(uint256) {\r\n        return balances[admin];\r\n    }\r\n\r\n    function transfer(address reciever, uint numToken) public returns (bool) {\r\n        require(numToken <= balances[msg.sender]);\r\n        balances[msg.sender] = balances[msg.sender] - numToken;\r\n        balances[reciever] = balances[reciever] + numToken;\r\n        emit Transfer(msg.sender, reciever, numToken);\r\n        return true;\r\n    }\r\n\r\n    function approve(address delegate, uint numToken) public returns (bool) {\r\n        allowed[msg.sender][delegate] = numToken;\r\n        emit Approval(msg.sender, delegate, numToken);\r\n        return true;\r\n    }\r\n\r\n    function allowance(address owner, address delegate) public view returns (uint) {\r\n        return allowed[owner][delegate];\r\n    }\r\n\r\n    function transferFrom(address owner, address buyer, uint numToken) public returns (bool) {\r\n        require(numToken <= balances[owner]);\r\n        require(numToken <= allowed[owner][buyer]);\r\n\r\n        balances[owner] = balances[owner] - numToken;\r\n        allowed[owner][buyer] = allowed[owner][buyer] - numToken;\r\n        balances[buyer] = balances[owner] - numToken;\r\n        emit Transfer(owner, buyer, numToken);\r\n\r\n        return true;\r\n    }\r\n\r\n    function mint(uint256 value) public returns (bool) {\r\n        require(msg.sender == admin);\r\n        _totalSupply += value;\r\n        balances[msg.sender] += value;\r\n        emit Transfer(address(0),msg.sender, value);\r\n        return true;\r\n    }\r\n\r\n    function buyToken(uint256 numberOfToken) public payable {\r\n        // require(numberOfToken * tokenPrice == msg.value);\r\n        require(balances[admin] >= numberOfToken);\r\n        balances[admin] -= numberOfToken;\r\n        balances[msg.sender] += numberOfToken;\r\n        tokensSold += numberOfToken;\r\n        emit Transfer(admin, msg.sender, numberOfToken);\r\n    }\r\n\r\n}",
  "sourcePath": "C:\\Users\\Dell\\Desktop\\Dcart\\eth\\contracts\\Token.sol",
  "compiler": {
    "name": "solc",
    "version": "0.8.13+commit.abaa5c0e.Emscripten.clang"
  },
  "schemaVersion": "3.4.7",
  "updatedAt": "2022-05-12T10:22:26.936Z",
  "devdoc": {
    "kind": "dev",
    "methods": {},
    "version": 1
  },
  "userdoc": {
    "kind": "user",
    "methods": {},
    "version": 1
  }
}