{
  "contractName": "Read",
  "abi": [
    {
      "inputs": [],
      "name": "totalProductID",
      "outputs": [
        {
          "internalType": "uint256",
          "name": "",
          "type": "uint256"
        }
      ],
      "stateMutability": "view",
      "type": "function"
    },
    {
      "inputs": [],
      "name": "currentOrderID",
      "outputs": [
        {
          "internalType": "uint256",
          "name": "",
          "type": "uint256"
        }
      ],
      "stateMutability": "view",
      "type": "function"
    },
    {
      "inputs": [
        {
          "internalType": "address",
          "name": "_seller",
          "type": "address"
        }
      ],
      "name": "Orders",
      "outputs": [
        {
          "internalType": "uint32[]",
          "name": "orderId",
          "type": "uint32[]"
        }
      ],
      "stateMutability": "view",
      "type": "function"
    },
    {
      "inputs": [
        {
          "internalType": "uint32",
          "name": "_id",
          "type": "uint32"
        }
      ],
      "name": "product",
      "outputs": [
        {
          "internalType": "bytes32",
          "name": "itemName",
          "type": "bytes32"
        },
        {
          "internalType": "uint256",
          "name": "itemPrice",
          "type": "uint256"
        },
        {
          "internalType": "bytes32",
          "name": "itemBrand",
          "type": "bytes32"
        },
        {
          "internalType": "string",
          "name": "itemDetails",
          "type": "string"
        },
        {
          "internalType": "uint32",
          "name": "availableCount",
          "type": "uint32"
        },
        {
          "internalType": "string",
          "name": "imageUrl",
          "type": "string"
        }
      ],
      "stateMutability": "view",
      "type": "function"
    },
    {
      "inputs": [
        {
          "internalType": "uint32",
          "name": "_id",
          "type": "uint32"
        }
      ],
      "name": "sellerProduct",
      "outputs": [
        {
          "internalType": "bytes32",
          "name": "itemName",
          "type": "bytes32"
        },
        {
          "internalType": "uint256",
          "name": "itemPrice",
          "type": "uint256"
        },
        {
          "internalType": "bytes32",
          "name": "itemBrand",
          "type": "bytes32"
        },
        {
          "internalType": "string",
          "name": "itemDetails",
          "type": "string"
        },
        {
          "internalType": "uint32",
          "name": "availableCount",
          "type": "uint32"
        },
        {
          "internalType": "string",
          "name": "imageUrl",
          "type": "string"
        }
      ],
      "stateMutability": "view",
      "type": "function"
    },
    {
      "inputs": [
        {
          "internalType": "address",
          "name": "_seller",
          "type": "address"
        },
        {
          "internalType": "uint32",
          "name": "_o_id",
          "type": "uint32"
        }
      ],
      "name": "productsList",
      "outputs": [
        {
          "internalType": "uint32[]",
          "name": "prodId",
          "type": "uint32[]"
        }
      ],
      "stateMutability": "view",
      "type": "function"
    },
    {
      "inputs": [
        {
          "internalType": "uint32",
          "name": "_o_id",
          "type": "uint32"
        },
        {
          "internalType": "uint32",
          "name": "_p_id",
          "type": "uint32"
        }
      ],
      "name": "productCount",
      "outputs": [
        {
          "internalType": "uint32",
          "name": "count",
          "type": "uint32"
        }
      ],
      "stateMutability": "view",
      "type": "function"
    },
    {
      "inputs": [
        {
          "internalType": "address",
          "name": "_addr",
          "type": "address"
        }
      ],
      "name": "userOrderDetails",
      "outputs": [
        {
          "internalType": "bytes32",
          "name": "userName",
          "type": "bytes32"
        },
        {
          "internalType": "uint256",
          "name": "userContact",
          "type": "uint256"
        },
        {
          "internalType": "bytes32",
          "name": "userEmail",
          "type": "bytes32"
        },
        {
          "internalType": "string",
          "name": "userAddr",
          "type": "string"
        }
      ],
      "stateMutability": "view",
      "type": "function"
    },
    {
      "inputs": [],
      "name": "userDetails",
      "outputs": [
        {
          "internalType": "bytes32",
          "name": "userName",
          "type": "bytes32"
        },
        {
          "internalType": "uint256",
          "name": "userContact",
          "type": "uint256"
        },
        {
          "internalType": "uint8",
          "name": "userGender",
          "type": "uint8"
        },
        {
          "internalType": "bytes32",
          "name": "userEmail",
          "type": "bytes32"
        },
        {
          "internalType": "string",
          "name": "userAddr",
          "type": "string"
        },
        {
          "internalType": "uint32[]",
          "name": "orders",
          "type": "uint32[]"
        },
        {
          "internalType": "uint8",
          "name": "userType",
          "type": "uint8"
        }
      ],
      "stateMutability": "view",
      "type": "function"
    },
    {
      "inputs": [
        {
          "internalType": "uint32",
          "name": "_id",
          "type": "uint32"
        }
      ],
      "name": "marketOrder",
      "outputs": [
        {
          "internalType": "address",
          "name": "BuyerAddr",
          "type": "address"
        },
        {
          "internalType": "uint256",
          "name": "timeStamp",
          "type": "uint256"
        },
        {
          "internalType": "string",
          "name": "orderDetails",
          "type": "string"
        },
        {
          "internalType": "uint256",
          "name": "totalPrice",
          "type": "uint256"
        }
      ],
      "stateMutability": "view",
      "type": "function"
    },
    {
      "inputs": [
        {
          "internalType": "uint32",
          "name": "_o_id",
          "type": "uint32"
        },
        {
          "internalType": "uint32",
          "name": "_p_id",
          "type": "uint32"
        }
      ],
      "name": "productOrder",
      "outputs": [
        {
          "internalType": "bool",
          "name": "isConfirmed",
          "type": "bool"
        },
        {
          "internalType": "bool",
          "name": "isRejected",
          "type": "bool"
        },
        {
          "internalType": "bool",
          "name": "isShipped",
          "type": "bool"
        },
        {
          "internalType": "bool",
          "name": "isCancelled",
          "type": "bool"
        },
        {
          "internalType": "bool",
          "name": "confirmDelivery",
          "type": "bool"
        }
      ],
      "stateMutability": "view",
      "type": "function"
    }
  ],
  "bytecode": "0x608060405234801561001057600080fd5b50611842806100206000396000f3fe608060405234801561001057600080fd5b50600436106100a95760003560e01c806359c5be691161007157806359c5be69146101935780637b931cf3146101c8578063e568aab5146101ec578063e7767bd91461021c578063f65633bd14610251578063f85ff9f91461026f576100a9565b806328565974146100ae5780632df50d65146100de5780632ec7e44d1461011157806333a2ff9d1461012f5780634385bc9a14610163575b600080fd5b6100c860048036038101906100c3919061125a565b6102a2565b6040516100d59190611355565b60405180910390f35b6100f860048036038101906100f391906113a3565b610368565b6040516101089493929190611491565b60405180910390f35b6101196104c0565b60405161012691906114dd565b60405180910390f35b610149600480360381019061014491906114f8565b6104e2565b60405161015a959493929190611553565b60405180910390f35b61017d600480360381019061017891906115a6565b61068d565b60405161018a9190611355565b60405180910390f35b6101ad60048036038101906101a891906113a3565b610771565b6040516101bf9695949392919061160e565b60405180910390f35b6101d061099b565b6040516101e39796959493929190611699565b60405180910390f35b610206600480360381019061020191906114f8565b610cfb565b6040516102139190611716565b60405180910390f35b610236600480360381019061023191906113a3565b610d54565b6040516102489695949392919061160e565b60405180910390f35b610259610ffb565b60405161026691906114dd565b60405180910390f35b6102896004803603810190610284919061125a565b61101d565b6040516102999493929190611731565b60405180910390f35b6060600060050160008373ffffffffffffffffffffffffffffffffffffffff1673ffffffffffffffffffffffffffffffffffffffff16815260200190815260200160002080548060200260200160405190810160405280929190818152602001828054801561035c57602002820191906000526020600020906000905b82829054906101000a900463ffffffff1663ffffffff168152602001906004019060208260030104928301926001038202915080841161031f5790505b50505050509050919050565b600080606060008060040160008663ffffffff1663ffffffff16815260200190815260200160002060000160009054906101000a900473ffffffffffffffffffffffffffffffffffffffff16600060040160008763ffffffff1663ffffffff16815260200190815260200160002060010154600060040160008863ffffffff1663ffffffff168152602001908152602001600020600201600060040160008963ffffffff1663ffffffff16815260200190815260200160002060030154818054610431906117ac565b80601f016020809104026020016040519081016040528092919081815260200182805461045d906117ac565b80156104aa5780601f1061047f576101008083540402835291602001916104aa565b820191906000526020600020905b81548152906001019060200180831161048d57829003601f168201915b5050505050915093509350935093509193509193565b60008060000160009054906101000a900463ffffffff1663ffffffff16905090565b60008060008060008060040160008863ffffffff1663ffffffff16815260200190815260200160002060050160008763ffffffff1663ffffffff16815260200190815260200160002060009054906101000a900460ff16600060040160008963ffffffff1663ffffffff16815260200190815260200160002060060160008863ffffffff1663ffffffff16815260200190815260200160002060009054906101000a900460ff16600060040160008a63ffffffff1663ffffffff16815260200190815260200160002060070160008963ffffffff1663ffffffff16815260200190815260200160002060009054906101000a900460ff16600060040160008b63ffffffff1663ffffffff16815260200190815260200160002060090160008a63ffffffff1663ffffffff16815260200190815260200160002060009054906101000a900460ff16600060040160008c63ffffffff1663ffffffff16815260200190815260200160002060080160008b63ffffffff1663ffffffff16815260200190815260200160002060009054906101000a900460ff16945094509450945094509295509295909350565b6060600060060160008473ffffffffffffffffffffffffffffffffffffffff1673ffffffffffffffffffffffffffffffffffffffff16815260200190815260200160002060008363ffffffff1663ffffffff16815260200190815260200160002080548060200260200160405190810160405280929190818152602001828054801561076457602002820191906000526020600020906000905b82829054906101000a900463ffffffff1663ffffffff16815260200190600401906020826003010492830192600103820291508084116107275790505b5050505050905092915050565b6000806000606060006060600060030160008863ffffffff1663ffffffff16815260200190815260200160002060000154600060030160008963ffffffff1663ffffffff16815260200190815260200160002060010154600060030160008a63ffffffff1663ffffffff16815260200190815260200160002060030154600060030160008b63ffffffff1663ffffffff168152602001908152602001600020600201600060030160008c63ffffffff1663ffffffff16815260200190815260200160002060040160009054906101000a900463ffffffff16600060030160008d63ffffffff1663ffffffff16815260200190815260200160002060050182805461087a906117ac565b80601f01602080910402602001604051908101604052809291908181526020018280546108a6906117ac565b80156108f35780601f106108c8576101008083540402835291602001916108f3565b820191906000526020600020905b8154815290600101906020018083116108d657829003601f168201915b50505050509250808054610906906117ac565b80601f0160208091040260200160405190810160405280929190818152602001828054610932906117ac565b801561097f5780601f106109545761010080835404028352916020019161097f565b820191906000526020600020905b81548152906001019060200180831161096257829003601f168201915b5050505050905095509550955095509550955091939550919395565b60008060008060608060008060020160003373ffffffffffffffffffffffffffffffffffffffff1673ffffffffffffffffffffffffffffffffffffffff16815260200190815260200160002060000154600060020160003373ffffffffffffffffffffffffffffffffffffffff1673ffffffffffffffffffffffffffffffffffffffff16815260200190815260200160002060010160009054906101000a900467ffffffffffffffff16600060020160003373ffffffffffffffffffffffffffffffffffffffff1673ffffffffffffffffffffffffffffffffffffffff16815260200190815260200160002060010160089054906101000a900460ff16600060020160003373ffffffffffffffffffffffffffffffffffffffff1673ffffffffffffffffffffffffffffffffffffffff16815260200190815260200160002060020154600060020160003373ffffffffffffffffffffffffffffffffffffffff1673ffffffffffffffffffffffffffffffffffffffff168152602001908152602001600020600301600060020160003373ffffffffffffffffffffffffffffffffffffffff1673ffffffffffffffffffffffffffffffffffffffff168152602001908152602001600020600401600060020160003373ffffffffffffffffffffffffffffffffffffffff1673ffffffffffffffffffffffffffffffffffffffff16815260200190815260200160002060050160009054906101000a900460ff166002811115610bcd57610bcc6117dd565b5b8567ffffffffffffffff169550828054610be6906117ac565b80601f0160208091040260200160405190810160405280929190818152602001828054610c12906117ac565b8015610c5f5780601f10610c3457610100808354040283529160200191610c5f565b820191906000526020600020905b815481529060010190602001808311610c4257829003601f168201915b5050505050925081805480602002602001604051908101604052809291908181526020018280548015610cdd57602002820191906000526020600020906000905b82829054906101000a900463ffffffff1663ffffffff1681526020019060040190602082600301049283019260010382029150808411610ca05790505b50505050509150965096509650965096509650965090919293949596565b60008060070160008463ffffffff1663ffffffff16815260200190815260200160002060008363ffffffff1663ffffffff16815260200190815260200160002060009054906101000a900463ffffffff16905092915050565b6000806000606060006060600060030160008863ffffffff1663ffffffff16815260200190815260200160002060060160009054906101000a900473ffffffffffffffffffffffffffffffffffffffff1673ffffffffffffffffffffffffffffffffffffffff163373ffffffffffffffffffffffffffffffffffffffff1614610ddc57600080fd5b600060030160008863ffffffff1663ffffffff16815260200190815260200160002060000154600060030160008963ffffffff1663ffffffff16815260200190815260200160002060010154600060030160008a63ffffffff1663ffffffff16815260200190815260200160002060030154600060030160008b63ffffffff1663ffffffff168152602001908152602001600020600201600060030160008c63ffffffff1663ffffffff16815260200190815260200160002060040160009054906101000a900463ffffffff16600060030160008d63ffffffff1663ffffffff168152602001908152602001600020600501828054610eda906117ac565b80601f0160208091040260200160405190810160405280929190818152602001828054610f06906117ac565b8015610f535780601f10610f2857610100808354040283529160200191610f53565b820191906000526020600020905b815481529060010190602001808311610f3657829003601f168201915b50505050509250808054610f66906117ac565b80601f0160208091040260200160405190810160405280929190818152602001828054610f92906117ac565b8015610fdf5780601f10610fb457610100808354040283529160200191610fdf565b820191906000526020600020905b815481529060010190602001808311610fc257829003601f168201915b5050505050905095509550955095509550955091939550919395565b60008060000160049054906101000a900463ffffffff1663ffffffff16905090565b60008060006060600060020160008673ffffffffffffffffffffffffffffffffffffffff1673ffffffffffffffffffffffffffffffffffffffff16815260200190815260200160002060000154600060020160008773ffffffffffffffffffffffffffffffffffffffff1673ffffffffffffffffffffffffffffffffffffffff16815260200190815260200160002060010160009054906101000a900467ffffffffffffffff16600060020160008873ffffffffffffffffffffffffffffffffffffffff1673ffffffffffffffffffffffffffffffffffffffff16815260200190815260200160002060020154600060020160008973ffffffffffffffffffffffffffffffffffffffff1673ffffffffffffffffffffffffffffffffffffffff1681526020019081526020016000206003018267ffffffffffffffff169250808054611168906117ac565b80601f0160208091040260200160405190810160405280929190818152602001828054611194906117ac565b80156111e15780601f106111b6576101008083540402835291602001916111e1565b820191906000526020600020905b8154815290600101906020018083116111c457829003601f168201915b5050505050905093509350935093509193509193565b600080fd5b600073ffffffffffffffffffffffffffffffffffffffff82169050919050565b6000611227826111fc565b9050919050565b6112378161121c565b811461124257600080fd5b50565b6000813590506112548161122e565b92915050565b6000602082840312156112705761126f6111f7565b5b600061127e84828501611245565b91505092915050565b600081519050919050565b600082825260208201905092915050565b6000819050602082019050919050565b600063ffffffff82169050919050565b6112cc816112b3565b82525050565b60006112de83836112c3565b60208301905092915050565b6000602082019050919050565b600061130282611287565b61130c8185611292565b9350611317836112a3565b8060005b8381101561134857815161132f88826112d2565b975061133a836112ea565b92505060018101905061131b565b5085935050505092915050565b6000602082019050818103600083015261136f81846112f7565b905092915050565b611380816112b3565b811461138b57600080fd5b50565b60008135905061139d81611377565b92915050565b6000602082840312156113b9576113b86111f7565b5b60006113c78482850161138e565b91505092915050565b6113d98161121c565b82525050565b6000819050919050565b6113f2816113df565b82525050565b600081519050919050565b600082825260208201905092915050565b60005b83811015611432578082015181840152602081019050611417565b83811115611441576000848401525b50505050565b6000601f19601f8301169050919050565b6000611463826113f8565b61146d8185611403565b935061147d818560208601611414565b61148681611447565b840191505092915050565b60006080820190506114a660008301876113d0565b6114b360208301866113e9565b81810360408301526114c58185611458565b90506114d460608301846113e9565b95945050505050565b60006020820190506114f260008301846113e9565b92915050565b6000806040838503121561150f5761150e6111f7565b5b600061151d8582860161138e565b925050602061152e8582860161138e565b9150509250929050565b60008115159050919050565b61154d81611538565b82525050565b600060a0820190506115686000830188611544565b6115756020830187611544565b6115826040830186611544565b61158f6060830185611544565b61159c6080830184611544565b9695505050505050565b600080604083850312156115bd576115bc6111f7565b5b60006115cb85828601611245565b92505060206115dc8582860161138e565b9150509250929050565b6000819050919050565b6115f9816115e6565b82525050565b611608816112b3565b82525050565b600060c08201905061162360008301896115f0565b61163060208301886113e9565b61163d60408301876115f0565b818103606083015261164f8186611458565b905061165e60808301856115ff565b81810360a08301526116708184611458565b9050979650505050505050565b600060ff82169050919050565b6116938161167d565b82525050565b600060e0820190506116ae600083018a6115f0565b6116bb60208301896113e9565b6116c8604083018861168a565b6116d560608301876115f0565b81810360808301526116e78186611458565b905081810360a08301526116fb81856112f7565b905061170a60c083018461168a565b98975050505050505050565b600060208201905061172b60008301846115ff565b92915050565b600060808201905061174660008301876115f0565b61175360208301866113e9565b61176060408301856115f0565b81810360608301526117728184611458565b905095945050505050565b7f4e487b7100000000000000000000000000000000000000000000000000000000600052602260045260246000fd5b600060028204905060018216806117c457607f821691505b6020821081036117d7576117d661177d565b5b50919050565b7f4e487b7100000000000000000000000000000000000000000000000000000000600052602160045260246000fdfea2646970667358221220a9afa0844d07a306035d3e924a2b86ec17fa6427ece1acacdca7d68ece03d8b364736f6c634300080d0033",
  "immutableReferences": {},
  "source": "// SPDX-License-Identifier: MIT\r\npragma solidity ^0.8.13;\r\n\r\nimport './Library.sol';\r\n\r\ncontract Read {\r\n\tusing Library for Library.CartModel;\r\n\tLibrary.CartModel MODEL;\r\n    \r\n\r\n\tmodifier onlySeller() {\r\n        require(uint256(MODEL.Users[msg.sender].userType) == 2, \"only seller\");\r\n        _;\r\n    }\r\n    modifier onlyBuyer() {\r\n        require(uint256(MODEL.Users[msg.sender].userType) == 1, \"only buyer\");\r\n        _;\r\n    }\r\n\r\n    function totalProductID() external view returns (uint256) {\r\n        return MODEL.P_ID;\r\n    }\r\n\r\n    function currentOrderID() external view returns (uint256) {\r\n        return MODEL.O_ID;\r\n    }\r\n\r\n    function Orders(address _seller) external view returns (uint32[] memory orderId) {\r\n        return (MODEL.orderList[_seller]);\r\n    }\r\n\r\n    function product(uint32 _id)\r\n        public\r\n        view\r\n        returns (\r\n            bytes32 itemName,\r\n            uint256 itemPrice,\r\n            bytes32 itemBrand,\r\n            string memory itemDetails,\r\n            uint32 availableCount,\r\n            string memory imageUrl\r\n        )\r\n    {\r\n        return (\r\n            MODEL.Product[_id].itemName,\r\n            MODEL.Product[_id].itemPrice,\r\n            MODEL.Product[_id].itemBrand,\r\n            MODEL.Product[_id].itemDetails,\r\n            MODEL.Product[_id].availableCount,\r\n            MODEL.Product[_id].imageUrl\r\n        );\r\n    }\r\n\r\n    function sellerProduct(uint32 _id)\r\n        public\r\n        view\r\n        returns (\r\n            bytes32 itemName,\r\n            uint256 itemPrice,\r\n            bytes32 itemBrand,\r\n            string memory itemDetails,\r\n            uint32 availableCount,\r\n            string memory imageUrl\r\n        )\r\n    {\r\n        require(msg.sender == MODEL.Product[_id].seller);\r\n        return (\r\n            MODEL.Product[_id].itemName,\r\n            MODEL.Product[_id].itemPrice,\r\n            MODEL.Product[_id].itemBrand,\r\n            MODEL.Product[_id].itemDetails,\r\n            MODEL.Product[_id].availableCount,\r\n            MODEL.Product[_id].imageUrl\r\n        );\r\n    }\r\n\r\n\r\n    function productsList(address _seller, uint32 _o_id) external view returns (uint32[] memory prodId) {\r\n        return (MODEL.prodList[_seller][_o_id]);\r\n    }\r\n\r\n    function productCount(uint32 _o_id, uint32 _p_id) external view returns (uint32 count) {\r\n        return (MODEL.prodTotal[_o_id][_p_id]);\r\n    }\r\n\r\n    function userOrderDetails(address _addr) \r\n        external \r\n        view \r\n        returns (\r\n            bytes32 userName,\r\n            uint256 userContact,\r\n            bytes32 userEmail,\r\n            string memory userAddr\r\n        )\r\n    {\r\n        return (\r\n            MODEL.Users[_addr].userName,\r\n            MODEL.Users[_addr].userContact,\r\n            MODEL.Users[_addr].userEmail,\r\n            MODEL.Users[_addr].userAddr\r\n        );\r\n    }\r\n\r\n    function userDetails() \r\n        external \r\n        view \r\n        returns (\r\n            bytes32 userName,\r\n            uint256 userContact,\r\n            uint8 userGender,\r\n            bytes32 userEmail,\r\n            string memory userAddr,\r\n            uint32[] memory orders,\r\n            uint8 userType\r\n        )\r\n    {\r\n        return (\r\n            MODEL.Users[msg.sender].userName,\r\n            MODEL.Users[msg.sender].userContact,\r\n            MODEL.Users[msg.sender].userGender,\r\n            MODEL.Users[msg.sender].userEmail,\r\n            MODEL.Users[msg.sender].userAddr,\r\n            MODEL.Users[msg.sender].orders,\r\n            uint8(MODEL.Users[msg.sender].userType)\r\n        );\r\n    }\r\n\r\n    function marketOrder(uint32 _id)\r\n        external\r\n        view\r\n        returns (\r\n            address BuyerAddr,\r\n            uint256 timeStamp,\r\n            string memory orderDetails,\r\n            uint256 totalPrice\r\n        )\r\n    {\r\n        return (\r\n            MODEL.MarketOrder[_id].BuyerAddr,\r\n            MODEL.MarketOrder[_id].timeStamp,\r\n            MODEL.MarketOrder[_id].orderDetails,\r\n            MODEL.MarketOrder[_id].totalPrice\r\n        );\r\n    }\r\n\r\n    function productOrder(uint32 _o_id, uint32 _p_id)\r\n        external\r\n        view\r\n        returns (\r\n            bool isConfirmed,\r\n            bool isRejected,\r\n            bool isShipped,\r\n            bool isCancelled,\r\n            bool confirmDelivery\r\n        )\r\n    {\r\n        return (\r\n            MODEL.MarketOrder[_o_id].isConfirmed[_p_id],\r\n            MODEL.MarketOrder[_o_id].isRejected[_p_id],\r\n            MODEL.MarketOrder[_o_id].isShipped[_p_id],\r\n            MODEL.MarketOrder[_o_id].isCancelled[_p_id],\r\n            MODEL.MarketOrder[_o_id].confirmDelivery[_p_id]\r\n        );\r\n    }    \r\n}",
  "sourcePath": "C:\\Users\\Dell\\Desktop\\Dcart\\eth\\contracts\\Read.sol",
  "compiler": {
    "name": "solc",
    "version": "0.8.13+commit.abaa5c0e.Emscripten.clang"
  },
  "schemaVersion": "3.4.7",
  "updatedAt": "2022-07-17T19:00:27.177Z",
  "devdoc": {
    "kind": "dev",
    "methods": {},
    "version": 1
  },
  "userdoc": {
    "kind": "user",
    "methods": {},
    "version": 1
  }
}