{
  "contractName": "Token",
  "abi": [
    {
      "inputs": [
        {
          "internalType": "uint256",
          "name": "total",
          "type": "uint256"
        }
      ],
      "stateMutability": "nonpayable",
      "type": "constructor"
    },
    {
      "anonymous": false,
      "inputs": [
        {
          "indexed": true,
          "internalType": "address",
          "name": "tokenOwner",
          "type": "address"
        },
        {
          "indexed": true,
          "internalType": "address",
          "name": "spender",
          "type": "address"
        },
        {
          "indexed": false,
          "internalType": "uint256",
          "name": "tokens",
          "type": "uint256"
        }
      ],
      "name": "Approval",
      "type": "event"
    },
    {
      "anonymous": false,
      "inputs": [
        {
          "indexed": true,
          "internalType": "address",
          "name": "from",
          "type": "address"
        },
        {
          "indexed": true,
          "internalType": "address",
          "name": "to",
          "type": "address"
        },
        {
          "indexed": false,
          "internalType": "uint256",
          "name": "tokens",
          "type": "uint256"
        }
      ],
      "name": "Transfer",
      "type": "event"
    },
    {
      "inputs": [
        {
          "internalType": "address",
          "name": "",
          "type": "address"
        },
        {
          "internalType": "address",
          "name": "",
          "type": "address"
        }
      ],
      "name": "allowed",
      "outputs": [
        {
          "internalType": "uint256",
          "name": "",
          "type": "uint256"
        }
      ],
      "stateMutability": "view",
      "type": "function",
      "constant": true
    },
    {
      "inputs": [
        {
          "internalType": "address",
          "name": "",
          "type": "address"
        }
      ],
      "name": "balances",
      "outputs": [
        {
          "internalType": "uint256",
          "name": "",
          "type": "uint256"
        }
      ],
      "stateMutability": "view",
      "type": "function",
      "constant": true
    },
    {
      "inputs": [],
      "name": "decimal",
      "outputs": [
        {
          "internalType": "uint8",
          "name": "",
          "type": "uint8"
        }
      ],
      "stateMutability": "view",
      "type": "function",
      "constant": true
    },
    {
      "inputs": [],
      "name": "name",
      "outputs": [
        {
          "internalType": "string",
          "name": "",
          "type": "string"
        }
      ],
      "stateMutability": "view",
      "type": "function",
      "constant": true
    },
    {
      "inputs": [],
      "name": "symbol",
      "outputs": [
        {
          "internalType": "string",
          "name": "",
          "type": "string"
        }
      ],
      "stateMutability": "view",
      "type": "function",
      "constant": true
    },
    {
      "inputs": [],
      "name": "tokenPrice",
      "outputs": [
        {
          "internalType": "uint256",
          "name": "",
          "type": "uint256"
        }
      ],
      "stateMutability": "view",
      "type": "function",
      "constant": true
    },
    {
      "inputs": [],
      "name": "tokensSold",
      "outputs": [
        {
          "internalType": "uint256",
          "name": "",
          "type": "uint256"
        }
      ],
      "stateMutability": "view",
      "type": "function",
      "constant": true
    },
    {
      "inputs": [],
      "name": "adminAddress",
      "outputs": [
        {
          "internalType": "address",
          "name": "",
          "type": "address"
        }
      ],
      "stateMutability": "view",
      "type": "function",
      "constant": true
    },
    {
      "inputs": [],
      "name": "totalSupply",
      "outputs": [
        {
          "internalType": "uint256",
          "name": "",
          "type": "uint256"
        }
      ],
      "stateMutability": "view",
      "type": "function",
      "constant": true
    },
    {
      "inputs": [
        {
          "internalType": "address",
          "name": "tokenOwner",
          "type": "address"
        }
      ],
      "name": "balanceOf",
      "outputs": [
        {
          "internalType": "uint256",
          "name": "",
          "type": "uint256"
        }
      ],
      "stateMutability": "view",
      "type": "function",
      "constant": true
    },
    {
      "inputs": [],
      "name": "tokensRemaining",
      "outputs": [
        {
          "internalType": "uint256",
          "name": "",
          "type": "uint256"
        }
      ],
      "stateMutability": "view",
      "type": "function",
      "constant": true
    },
    {
      "inputs": [
        {
          "internalType": "address",
          "name": "sender",
          "type": "address"
        },
        {
          "internalType": "address",
          "name": "reciever",
          "type": "address"
        },
        {
          "internalType": "uint256",
          "name": "numToken",
          "type": "uint256"
        }
      ],
      "name": "transfer",
      "outputs": [
        {
          "internalType": "bool",
          "name": "",
          "type": "bool"
        }
      ],
      "stateMutability": "nonpayable",
      "type": "function"
    },
    {
      "inputs": [
        {
          "internalType": "address",
          "name": "delegate",
          "type": "address"
        },
        {
          "internalType": "uint256",
          "name": "numToken",
          "type": "uint256"
        }
      ],
      "name": "approve",
      "outputs": [
        {
          "internalType": "bool",
          "name": "",
          "type": "bool"
        }
      ],
      "stateMutability": "nonpayable",
      "type": "function"
    },
    {
      "inputs": [
        {
          "internalType": "address",
          "name": "owner",
          "type": "address"
        },
        {
          "internalType": "address",
          "name": "delegate",
          "type": "address"
        }
      ],
      "name": "allowance",
      "outputs": [
        {
          "internalType": "uint256",
          "name": "",
          "type": "uint256"
        }
      ],
      "stateMutability": "view",
      "type": "function",
      "constant": true
    },
    {
      "inputs": [
        {
          "internalType": "address",
          "name": "from",
          "type": "address"
        },
        {
          "internalType": "address",
          "name": "to",
          "type": "address"
        },
        {
          "internalType": "uint256",
          "name": "numToken",
          "type": "uint256"
        }
      ],
      "name": "transferFrom",
      "outputs": [
        {
          "internalType": "bool",
          "name": "",
          "type": "bool"
        }
      ],
      "stateMutability": "nonpayable",
      "type": "function"
    },
    {
      "inputs": [
        {
          "internalType": "uint256",
          "name": "value",
          "type": "uint256"
        }
      ],
      "name": "mint",
      "outputs": [
        {
          "internalType": "bool",
          "name": "",
          "type": "bool"
        }
      ],
      "stateMutability": "nonpayable",
      "type": "function"
    },
    {
      "inputs": [
        {
          "internalType": "uint256",
          "name": "numberOfToken",
          "type": "uint256"
        }
      ],
      "name": "buyToken",
      "outputs": [],
      "stateMutability": "payable",
      "type": "function",
      "payable": true
    }
  ],
  "bytecode": "0x608060405260006003553480156200001657600080fd5b506040516200152f3803806200152f83398181016040528101906200003c919062000151565b80600281905550600254600460003373ffffffffffffffffffffffffffffffffffffffff1673ffffffffffffffffffffffffffffffffffffffff16815260200190815260200160002081905550336000806101000a81548173ffffffffffffffffffffffffffffffffffffffff021916908373ffffffffffffffffffffffffffffffffffffffff16021790555030600160006101000a81548173ffffffffffffffffffffffffffffffffffffffff021916908373ffffffffffffffffffffffffffffffffffffffff1602179055505062000183565b600080fd5b6000819050919050565b6200012b8162000116565b81146200013757600080fd5b50565b6000815190506200014b8162000120565b92915050565b6000602082840312156200016a576200016962000111565b5b60006200017a848285016200013a565b91505092915050565b61139c80620001936000396000f3fe6080604052600436106100fe5760003560e01c806370a0823111610095578063a0712d6811610064578063a0712d6814610352578063beabacc81461038f578063c8b08125146103cc578063dd62ed3e146103f7578063fc6f946814610434576100fe565b806370a082311461029457806376809ce3146102d15780637ff9b596146102fc57806395d89b4114610327576100fe565b806327e235e3116100d157806327e235e3146101d35780632d296bf114610210578063518ab2a81461022c5780635c65816514610257576100fe565b806306fdde0314610103578063095ea7b31461012e57806318160ddd1461016b57806323b872dd14610196575b600080fd5b34801561010f57600080fd5b5061011861045f565b6040516101259190610faa565b60405180910390f35b34801561013a57600080fd5b5061015560048036038101906101509190611065565b610498565b60405161016291906110c0565b60405180910390f35b34801561017757600080fd5b5061018061058a565b60405161018d91906110ea565b60405180910390f35b3480156101a257600080fd5b506101bd60048036038101906101b89190611105565b610594565b6040516101ca91906110c0565b60405180910390f35b3480156101df57600080fd5b506101fa60048036038101906101f59190611158565b61081a565b60405161020791906110ea565b60405180910390f35b61022a60048036038101906102259190611185565b610832565b005b34801561023857600080fd5b50610241610a2a565b60405161024e91906110ea565b60405180910390f35b34801561026357600080fd5b5061027e600480360381019061027991906111b2565b610a30565b60405161028b91906110ea565b60405180910390f35b3480156102a057600080fd5b506102bb60048036038101906102b69190611158565b610a55565b6040516102c891906110ea565b60405180910390f35b3480156102dd57600080fd5b506102e6610a9e565b6040516102f3919061120e565b60405180910390f35b34801561030857600080fd5b50610311610aa3565b60405161031e91906110ea565b60405180910390f35b34801561033357600080fd5b5061033c610aad565b6040516103499190610faa565b60405180910390f35b34801561035e57600080fd5b5061037960048036038101906103749190611185565b610ae6565b60405161038691906110c0565b60405180910390f35b34801561039b57600080fd5b506103b660048036038101906103b19190611105565b610c1f565b6040516103c391906110c0565b60405180910390f35b3480156103d857600080fd5b506103e1610df9565b6040516103ee91906110ea565b60405180910390f35b34801561040357600080fd5b5061041e600480360381019061041991906111b2565b610e61565b60405161042b91906110ea565b60405180910390f35b34801561044057600080fd5b50610449610ee8565b6040516104569190611238565b60405180910390f35b6040518060400160405280600c81526020017f41736869736820546f6b656e000000000000000000000000000000000000000081525081565b600081600560003373ffffffffffffffffffffffffffffffffffffffff1673ffffffffffffffffffffffffffffffffffffffff16815260200190815260200160002060008573ffffffffffffffffffffffffffffffffffffffff1673ffffffffffffffffffffffffffffffffffffffff168152602001908152602001600020819055508273ffffffffffffffffffffffffffffffffffffffff163373ffffffffffffffffffffffffffffffffffffffff167f8c5be1e5ebec7d5bd14f71427d1e84f3dd0314c0f7b2291e5b200ac8c7c3b9258460405161057891906110ea565b60405180910390a36001905092915050565b6000600254905090565b6000600460008573ffffffffffffffffffffffffffffffffffffffff1673ffffffffffffffffffffffffffffffffffffffff168152602001908152602001600020548211156105e257600080fd5b600560008573ffffffffffffffffffffffffffffffffffffffff1673ffffffffffffffffffffffffffffffffffffffff16815260200190815260200160002060003373ffffffffffffffffffffffffffffffffffffffff1673ffffffffffffffffffffffffffffffffffffffff1681526020019081526020016000205482111561066b57600080fd5b81600460008673ffffffffffffffffffffffffffffffffffffffff1673ffffffffffffffffffffffffffffffffffffffff16815260200190815260200160002060008282546106ba9190611282565b9250508190555081600560008673ffffffffffffffffffffffffffffffffffffffff1673ffffffffffffffffffffffffffffffffffffffff16815260200190815260200160002060003373ffffffffffffffffffffffffffffffffffffffff1673ffffffffffffffffffffffffffffffffffffffff168152602001908152602001600020600082825461074d9190611282565b9250508190555081600460008573ffffffffffffffffffffffffffffffffffffffff1673ffffffffffffffffffffffffffffffffffffffff16815260200190815260200160002060008282546107a391906112b6565b925050819055508273ffffffffffffffffffffffffffffffffffffffff168473ffffffffffffffffffffffffffffffffffffffff167fddf252ad1be2c89b69c2b068fc378daa952ba7f163c4a11628f55a4df523b3ef8460405161080791906110ea565b60405180910390a3600190509392505050565b60046020528060005260406000206000915090505481565b3465088c9ba9300082610845919061130c565b1461084f57600080fd5b80600460008060009054906101000a900473ffffffffffffffffffffffffffffffffffffffff1673ffffffffffffffffffffffffffffffffffffffff1673ffffffffffffffffffffffffffffffffffffffff1681526020019081526020016000205410156108bc57600080fd5b80600460008060009054906101000a900473ffffffffffffffffffffffffffffffffffffffff1673ffffffffffffffffffffffffffffffffffffffff1673ffffffffffffffffffffffffffffffffffffffff168152602001908152602001600020600082825461092c9190611282565b9250508190555080600460003373ffffffffffffffffffffffffffffffffffffffff1673ffffffffffffffffffffffffffffffffffffffff168152602001908152602001600020600082825461098291906112b6565b92505081905550806003600082825461099b91906112b6565b925050819055503373ffffffffffffffffffffffffffffffffffffffff1660008054906101000a900473ffffffffffffffffffffffffffffffffffffffff1673ffffffffffffffffffffffffffffffffffffffff167fddf252ad1be2c89b69c2b068fc378daa952ba7f163c4a11628f55a4df523b3ef83604051610a1f91906110ea565b60405180910390a350565b60035481565b6005602052816000526040600020602052806000526040600020600091509150505481565b6000600460008373ffffffffffffffffffffffffffffffffffffffff1673ffffffffffffffffffffffffffffffffffffffff168152602001908152602001600020549050919050565b601281565b65088c9ba9300081565b6040518060400160405280600381526020017f415348000000000000000000000000000000000000000000000000000000000081525081565b60008060009054906101000a900473ffffffffffffffffffffffffffffffffffffffff1673ffffffffffffffffffffffffffffffffffffffff163373ffffffffffffffffffffffffffffffffffffffff1614610b4157600080fd5b8160026000828254610b5391906112b6565b9250508190555081600460003373ffffffffffffffffffffffffffffffffffffffff1673ffffffffffffffffffffffffffffffffffffffff1681526020019081526020016000206000828254610ba991906112b6565b925050819055503373ffffffffffffffffffffffffffffffffffffffff16600073ffffffffffffffffffffffffffffffffffffffff167fddf252ad1be2c89b69c2b068fc378daa952ba7f163c4a11628f55a4df523b3ef84604051610c0e91906110ea565b60405180910390a360019050919050565b6000600460008573ffffffffffffffffffffffffffffffffffffffff1673ffffffffffffffffffffffffffffffffffffffff16815260200190815260200160002054821115610c6d57600080fd5b81600460008673ffffffffffffffffffffffffffffffffffffffff1673ffffffffffffffffffffffffffffffffffffffff16815260200190815260200160002054610cb89190611282565b600460008673ffffffffffffffffffffffffffffffffffffffff1673ffffffffffffffffffffffffffffffffffffffff1681526020019081526020016000208190555081600460008573ffffffffffffffffffffffffffffffffffffffff1673ffffffffffffffffffffffffffffffffffffffff16815260200190815260200160002054610d4691906112b6565b600460008573ffffffffffffffffffffffffffffffffffffffff1673ffffffffffffffffffffffffffffffffffffffff168152602001908152602001600020819055508273ffffffffffffffffffffffffffffffffffffffff168473ffffffffffffffffffffffffffffffffffffffff167fddf252ad1be2c89b69c2b068fc378daa952ba7f163c4a11628f55a4df523b3ef84604051610de691906110ea565b60405180910390a3600190509392505050565b6000600460008060009054906101000a900473ffffffffffffffffffffffffffffffffffffffff1673ffffffffffffffffffffffffffffffffffffffff1673ffffffffffffffffffffffffffffffffffffffff16815260200190815260200160002054905090565b6000600560008473ffffffffffffffffffffffffffffffffffffffff1673ffffffffffffffffffffffffffffffffffffffff16815260200190815260200160002060008373ffffffffffffffffffffffffffffffffffffffff1673ffffffffffffffffffffffffffffffffffffffff16815260200190815260200160002054905092915050565b60008060009054906101000a900473ffffffffffffffffffffffffffffffffffffffff16905090565b600081519050919050565b600082825260208201905092915050565b60005b83811015610f4b578082015181840152602081019050610f30565b83811115610f5a576000848401525b50505050565b6000601f19601f8301169050919050565b6000610f7c82610f11565b610f868185610f1c565b9350610f96818560208601610f2d565b610f9f81610f60565b840191505092915050565b60006020820190508181036000830152610fc48184610f71565b905092915050565b600080fd5b600073ffffffffffffffffffffffffffffffffffffffff82169050919050565b6000610ffc82610fd1565b9050919050565b61100c81610ff1565b811461101757600080fd5b50565b60008135905061102981611003565b92915050565b6000819050919050565b6110428161102f565b811461104d57600080fd5b50565b60008135905061105f81611039565b92915050565b6000806040838503121561107c5761107b610fcc565b5b600061108a8582860161101a565b925050602061109b85828601611050565b9150509250929050565b60008115159050919050565b6110ba816110a5565b82525050565b60006020820190506110d560008301846110b1565b92915050565b6110e48161102f565b82525050565b60006020820190506110ff60008301846110db565b92915050565b60008060006060848603121561111e5761111d610fcc565b5b600061112c8682870161101a565b935050602061113d8682870161101a565b925050604061114e86828701611050565b9150509250925092565b60006020828403121561116e5761116d610fcc565b5b600061117c8482850161101a565b91505092915050565b60006020828403121561119b5761119a610fcc565b5b60006111a984828501611050565b91505092915050565b600080604083850312156111c9576111c8610fcc565b5b60006111d78582860161101a565b92505060206111e88582860161101a565b9150509250929050565b600060ff82169050919050565b611208816111f2565b82525050565b600060208201905061122360008301846111ff565b92915050565b61123281610ff1565b82525050565b600060208201905061124d6000830184611229565b92915050565b7f4e487b7100000000000000000000000000000000000000000000000000000000600052601160045260246000fd5b600061128d8261102f565b91506112988361102f565b9250828210156112ab576112aa611253565b5b828203905092915050565b60006112c18261102f565b91506112cc8361102f565b9250827fffffffffffffffffffffffffffffffffffffffffffffffffffffffffffffffff0382111561130157611300611253565b5b828201905092915050565b60006113178261102f565b91506113228361102f565b9250817fffffffffffffffffffffffffffffffffffffffffffffffffffffffffffffffff048311821515161561135b5761135a611253565b5b82820290509291505056fea264697066735822122073db2af5609a621f32b5e85dc5ef1fa025297233e6397e7135b46509c5458b1364736f6c634300080d0033",
  "immutableReferences": {},
  "source": "// SPDX-License-Identifier: MIT\r\npragma solidity ^0.8.13;\r\n\r\ncontract Token {\r\n    string constant public name = \"Ashish Token\";\r\n    string constant public symbol = \"ASH\";\r\n    uint8 constant public decimal = 18;\r\n    address admin;\r\n    address self;\r\n    uint256 _totalSupply;\r\n    uint256 public tokensSold = 0;\r\n    uint256 constant public tokenPrice = 9400000000000;\r\n\r\n    mapping(address => uint256) public balances;\r\n    mapping(address => mapping(address => uint256)) public allowed;\r\n\r\n\r\n    event Approval(address indexed tokenOwner, address indexed spender, uint tokens);\r\n    event Transfer(address indexed from, address indexed to, uint tokens);\r\n\r\n\r\n    constructor(uint256 total) {\r\n        _totalSupply = total;\r\n        balances[msg.sender] = _totalSupply;\r\n        admin = msg.sender;\r\n        self = address(this);\r\n    }\r\n\r\n\tfunction adminAddress() public view returns (address) {\r\n\t\treturn admin;\r\n\t}\r\n\r\n    function totalSupply() public view returns (uint256) {\r\n        return _totalSupply;\r\n    }\r\n\r\n    function balanceOf(address tokenOwner) public view returns (uint) {\r\n        return balances[tokenOwner];\r\n    }\r\n\r\n    function tokensRemaining() public view returns(uint256) {\r\n        return balances[admin];\r\n    }\r\n\r\n    function transfer(address sender, address reciever, uint numToken) public returns (bool) {\r\n        require(numToken <= balances[sender]);\r\n        balances[sender] = balances[sender] - numToken;\r\n        balances[reciever] = balances[reciever] + numToken;\r\n        emit Transfer(sender, reciever, numToken);\r\n        return true;\r\n    }\r\n\r\n    function approve(address delegate, uint numToken) public returns (bool) {\r\n        allowed[msg.sender][delegate] = numToken;\r\n        emit Approval(msg.sender, delegate, numToken);\r\n        return true;\r\n    }\r\n\r\n    function allowance(address owner, address delegate) public view returns (uint) {\r\n        return allowed[owner][delegate];\r\n    }\r\n\r\n    function transferFrom(address from, address to, uint numToken) public returns (bool) {\r\n        require(numToken <= balances[from]);\r\n        require(numToken <= allowed[from][msg.sender]);\r\n\r\n        balances[from] -= numToken;\r\n        allowed[from][msg.sender] -= numToken;\r\n        balances[to] += numToken;\r\n        emit Transfer(from, to, numToken);\r\n\r\n        return true;\r\n    }\r\n\r\n    function mint(uint256 value) public returns (bool) {\r\n        require(msg.sender == admin);\r\n        _totalSupply += value;\r\n        balances[msg.sender] += value;\r\n        emit Transfer(address(0),msg.sender, value);\r\n        return true;\r\n    }\r\n\r\n    function buyToken(uint256 numberOfToken) public payable {\r\n        require(numberOfToken * tokenPrice == msg.value);\r\n        require(balances[admin] >= numberOfToken);\r\n        balances[admin] -= numberOfToken;\r\n        balances[msg.sender] += numberOfToken;\r\n        tokensSold += numberOfToken;\r\n        emit Transfer(admin, msg.sender, numberOfToken);\r\n    }\r\n\r\n}",
  "sourcePath": "C:\\Users\\Dell\\Desktop\\Dcart\\eth\\contracts\\Token.sol",
  "compiler": {
    "name": "solc",
    "version": "0.8.13+commit.abaa5c0e.Emscripten.clang"
  },
  "schemaVersion": "3.4.7",
  "updatedAt": "2022-07-17T19:01:00.433Z",
  "networkType": "ethereum",
  "devdoc": {
    "kind": "dev",
    "methods": {},
    "version": 1
  },
  "userdoc": {
    "kind": "user",
    "methods": {},
    "version": 1
  }
}