{
  "contractName": "Token",
  "abi": [
    {
      "inputs": [
        {
          "internalType": "uint256",
          "name": "total",
          "type": "uint256"
        }
      ],
      "stateMutability": "nonpayable",
      "type": "constructor"
    },
    {
      "anonymous": false,
      "inputs": [
        {
          "indexed": true,
          "internalType": "address",
          "name": "tokenOwner",
          "type": "address"
        },
        {
          "indexed": true,
          "internalType": "address",
          "name": "spender",
          "type": "address"
        },
        {
          "indexed": false,
          "internalType": "uint256",
          "name": "tokens",
          "type": "uint256"
        }
      ],
      "name": "Approval",
      "type": "event"
    },
    {
      "anonymous": false,
      "inputs": [
        {
          "indexed": true,
          "internalType": "address",
          "name": "from",
          "type": "address"
        },
        {
          "indexed": true,
          "internalType": "address",
          "name": "to",
          "type": "address"
        },
        {
          "indexed": false,
          "internalType": "uint256",
          "name": "tokens",
          "type": "uint256"
        }
      ],
      "name": "Transfer",
      "type": "event"
    },
    {
      "inputs": [
        {
          "internalType": "address",
          "name": "",
          "type": "address"
        },
        {
          "internalType": "address",
          "name": "",
          "type": "address"
        }
      ],
      "name": "allowed",
      "outputs": [
        {
          "internalType": "uint256",
          "name": "",
          "type": "uint256"
        }
      ],
      "stateMutability": "view",
      "type": "function",
      "constant": true
    },
    {
      "inputs": [
        {
          "internalType": "address",
          "name": "",
          "type": "address"
        }
      ],
      "name": "balances",
      "outputs": [
        {
          "internalType": "uint256",
          "name": "",
          "type": "uint256"
        }
      ],
      "stateMutability": "view",
      "type": "function",
      "constant": true
    },
    {
      "inputs": [],
      "name": "decimal",
      "outputs": [
        {
          "internalType": "uint8",
          "name": "",
          "type": "uint8"
        }
      ],
      "stateMutability": "view",
      "type": "function",
      "constant": true
    },
    {
      "inputs": [],
      "name": "name",
      "outputs": [
        {
          "internalType": "string",
          "name": "",
          "type": "string"
        }
      ],
      "stateMutability": "view",
      "type": "function",
      "constant": true
    },
    {
      "inputs": [],
      "name": "symbol",
      "outputs": [
        {
          "internalType": "string",
          "name": "",
          "type": "string"
        }
      ],
      "stateMutability": "view",
      "type": "function",
      "constant": true
    },
    {
      "inputs": [],
      "name": "tokenPrice",
      "outputs": [
        {
          "internalType": "uint256",
          "name": "",
          "type": "uint256"
        }
      ],
      "stateMutability": "view",
      "type": "function",
      "constant": true
    },
    {
      "inputs": [],
      "name": "tokensSold",
      "outputs": [
        {
          "internalType": "uint256",
          "name": "",
          "type": "uint256"
        }
      ],
      "stateMutability": "view",
      "type": "function",
      "constant": true
    },
    {
      "inputs": [],
      "name": "adminAddress",
      "outputs": [
        {
          "internalType": "address",
          "name": "",
          "type": "address"
        }
      ],
      "stateMutability": "view",
      "type": "function",
      "constant": true
    },
    {
      "inputs": [],
      "name": "totalSupply",
      "outputs": [
        {
          "internalType": "uint256",
          "name": "",
          "type": "uint256"
        }
      ],
      "stateMutability": "view",
      "type": "function",
      "constant": true
    },
    {
      "inputs": [
        {
          "internalType": "address",
          "name": "tokenOwner",
          "type": "address"
        }
      ],
      "name": "balanceOf",
      "outputs": [
        {
          "internalType": "uint256",
          "name": "",
          "type": "uint256"
        }
      ],
      "stateMutability": "view",
      "type": "function",
      "constant": true
    },
    {
      "inputs": [],
      "name": "tokensRemaining",
      "outputs": [
        {
          "internalType": "uint256",
          "name": "",
          "type": "uint256"
        }
      ],
      "stateMutability": "view",
      "type": "function",
      "constant": true
    },
    {
      "inputs": [
        {
          "internalType": "address",
          "name": "reciever",
          "type": "address"
        },
        {
          "internalType": "uint256",
          "name": "numToken",
          "type": "uint256"
        }
      ],
      "name": "transfer",
      "outputs": [
        {
          "internalType": "bool",
          "name": "",
          "type": "bool"
        }
      ],
      "stateMutability": "nonpayable",
      "type": "function"
    },
    {
      "inputs": [
        {
          "internalType": "address",
          "name": "delegate",
          "type": "address"
        },
        {
          "internalType": "uint256",
          "name": "numToken",
          "type": "uint256"
        }
      ],
      "name": "approve",
      "outputs": [
        {
          "internalType": "bool",
          "name": "",
          "type": "bool"
        }
      ],
      "stateMutability": "nonpayable",
      "type": "function"
    },
    {
      "inputs": [
        {
          "internalType": "address",
          "name": "owner",
          "type": "address"
        },
        {
          "internalType": "address",
          "name": "delegate",
          "type": "address"
        }
      ],
      "name": "allowance",
      "outputs": [
        {
          "internalType": "uint256",
          "name": "",
          "type": "uint256"
        }
      ],
      "stateMutability": "view",
      "type": "function",
      "constant": true
    },
    {
      "inputs": [
        {
          "internalType": "address",
          "name": "from",
          "type": "address"
        },
        {
          "internalType": "address",
          "name": "to",
          "type": "address"
        },
        {
          "internalType": "uint256",
          "name": "numToken",
          "type": "uint256"
        }
      ],
      "name": "transferFrom",
      "outputs": [
        {
          "internalType": "bool",
          "name": "",
          "type": "bool"
        }
      ],
      "stateMutability": "nonpayable",
      "type": "function"
    },
    {
      "inputs": [
        {
          "internalType": "uint256",
          "name": "value",
          "type": "uint256"
        }
      ],
      "name": "mint",
      "outputs": [
        {
          "internalType": "bool",
          "name": "",
          "type": "bool"
        }
      ],
      "stateMutability": "nonpayable",
      "type": "function"
    },
    {
      "inputs": [
        {
          "internalType": "uint256",
          "name": "numberOfToken",
          "type": "uint256"
        }
      ],
      "name": "buyToken",
      "outputs": [],
      "stateMutability": "payable",
      "type": "function",
      "payable": true
    }
  ],
  "bytecode": "0x608060405260006003553480156200001657600080fd5b50604051620014b8380380620014b883398181016040528101906200003c919062000151565b80600281905550600254600460003373ffffffffffffffffffffffffffffffffffffffff1673ffffffffffffffffffffffffffffffffffffffff16815260200190815260200160002081905550336000806101000a81548173ffffffffffffffffffffffffffffffffffffffff021916908373ffffffffffffffffffffffffffffffffffffffff16021790555030600160006101000a81548173ffffffffffffffffffffffffffffffffffffffff021916908373ffffffffffffffffffffffffffffffffffffffff1602179055505062000183565b600080fd5b6000819050919050565b6200012b8162000116565b81146200013757600080fd5b50565b6000815190506200014b8162000120565b92915050565b6000602082840312156200016a576200016962000111565b5b60006200017a848285016200013a565b91505092915050565b61132580620001936000396000f3fe6080604052600436106100fe5760003560e01c806370a0823111610095578063a0712d6811610064578063a0712d6814610352578063a9059cbb1461038f578063c8b08125146103cc578063dd62ed3e146103f7578063fc6f946814610434576100fe565b806370a082311461029457806376809ce3146102d15780637ff9b596146102fc57806395d89b4114610327576100fe565b806327e235e3116100d157806327e235e3146101d35780632d296bf114610210578063518ab2a81461022c5780635c65816514610257576100fe565b806306fdde0314610103578063095ea7b31461012e57806318160ddd1461016b57806323b872dd14610196575b600080fd5b34801561010f57600080fd5b5061011861045f565b6040516101259190610f8d565b60405180910390f35b34801561013a57600080fd5b5061015560048036038101906101509190611048565b610498565b60405161016291906110a3565b60405180910390f35b34801561017757600080fd5b5061018061058a565b60405161018d91906110cd565b60405180910390f35b3480156101a257600080fd5b506101bd60048036038101906101b891906110e8565b610594565b6040516101ca91906110a3565b60405180910390f35b3480156101df57600080fd5b506101fa60048036038101906101f5919061113b565b61081a565b60405161020791906110cd565b60405180910390f35b61022a60048036038101906102259190611168565b610832565b005b34801561023857600080fd5b50610241610a0d565b60405161024e91906110cd565b60405180910390f35b34801561026357600080fd5b5061027e60048036038101906102799190611195565b610a13565b60405161028b91906110cd565b60405180910390f35b3480156102a057600080fd5b506102bb60048036038101906102b6919061113b565b610a38565b6040516102c891906110cd565b60405180910390f35b3480156102dd57600080fd5b506102e6610a81565b6040516102f391906111f1565b60405180910390f35b34801561030857600080fd5b50610311610a86565b60405161031e91906110cd565b60405180910390f35b34801561033357600080fd5b5061033c610a91565b6040516103499190610f8d565b60405180910390f35b34801561035e57600080fd5b5061037960048036038101906103749190611168565b610aca565b60405161038691906110a3565b60405180910390f35b34801561039b57600080fd5b506103b660048036038101906103b19190611048565b610c03565b6040516103c391906110a3565b60405180910390f35b3480156103d857600080fd5b506103e1610ddc565b6040516103ee91906110cd565b60405180910390f35b34801561040357600080fd5b5061041e60048036038101906104199190611195565b610e44565b60405161042b91906110cd565b60405180910390f35b34801561044057600080fd5b50610449610ecb565b604051610456919061121b565b60405180910390f35b6040518060400160405280600c81526020017f41736869736820546f6b656e000000000000000000000000000000000000000081525081565b600081600560003373ffffffffffffffffffffffffffffffffffffffff1673ffffffffffffffffffffffffffffffffffffffff16815260200190815260200160002060008573ffffffffffffffffffffffffffffffffffffffff1673ffffffffffffffffffffffffffffffffffffffff168152602001908152602001600020819055508273ffffffffffffffffffffffffffffffffffffffff163373ffffffffffffffffffffffffffffffffffffffff167f8c5be1e5ebec7d5bd14f71427d1e84f3dd0314c0f7b2291e5b200ac8c7c3b9258460405161057891906110cd565b60405180910390a36001905092915050565b6000600254905090565b6000600460008573ffffffffffffffffffffffffffffffffffffffff1673ffffffffffffffffffffffffffffffffffffffff168152602001908152602001600020548211156105e257600080fd5b600560008573ffffffffffffffffffffffffffffffffffffffff1673ffffffffffffffffffffffffffffffffffffffff16815260200190815260200160002060003373ffffffffffffffffffffffffffffffffffffffff1673ffffffffffffffffffffffffffffffffffffffff1681526020019081526020016000205482111561066b57600080fd5b81600460008673ffffffffffffffffffffffffffffffffffffffff1673ffffffffffffffffffffffffffffffffffffffff16815260200190815260200160002060008282546106ba9190611265565b9250508190555081600560008673ffffffffffffffffffffffffffffffffffffffff1673ffffffffffffffffffffffffffffffffffffffff16815260200190815260200160002060003373ffffffffffffffffffffffffffffffffffffffff1673ffffffffffffffffffffffffffffffffffffffff168152602001908152602001600020600082825461074d9190611265565b9250508190555081600460008573ffffffffffffffffffffffffffffffffffffffff1673ffffffffffffffffffffffffffffffffffffffff16815260200190815260200160002060008282546107a39190611299565b925050819055508273ffffffffffffffffffffffffffffffffffffffff168473ffffffffffffffffffffffffffffffffffffffff167fddf252ad1be2c89b69c2b068fc378daa952ba7f163c4a11628f55a4df523b3ef8460405161080791906110cd565b60405180910390a3600190509392505050565b60046020528060005260406000206000915090505481565b80600460008060009054906101000a900473ffffffffffffffffffffffffffffffffffffffff1673ffffffffffffffffffffffffffffffffffffffff1673ffffffffffffffffffffffffffffffffffffffff16815260200190815260200160002054101561089f57600080fd5b80600460008060009054906101000a900473ffffffffffffffffffffffffffffffffffffffff1673ffffffffffffffffffffffffffffffffffffffff1673ffffffffffffffffffffffffffffffffffffffff168152602001908152602001600020600082825461090f9190611265565b9250508190555080600460003373ffffffffffffffffffffffffffffffffffffffff1673ffffffffffffffffffffffffffffffffffffffff16815260200190815260200160002060008282546109659190611299565b92505081905550806003600082825461097e9190611299565b925050819055503373ffffffffffffffffffffffffffffffffffffffff1660008054906101000a900473ffffffffffffffffffffffffffffffffffffffff1673ffffffffffffffffffffffffffffffffffffffff167fddf252ad1be2c89b69c2b068fc378daa952ba7f163c4a11628f55a4df523b3ef83604051610a0291906110cd565b60405180910390a350565b60035481565b6005602052816000526040600020602052806000526040600020600091509150505481565b6000600460008373ffffffffffffffffffffffffffffffffffffffff1673ffffffffffffffffffffffffffffffffffffffff168152602001908152602001600020549050919050565b601281565b66038d7ea4c6800081565b6040518060400160405280600381526020017f415348000000000000000000000000000000000000000000000000000000000081525081565b60008060009054906101000a900473ffffffffffffffffffffffffffffffffffffffff1673ffffffffffffffffffffffffffffffffffffffff163373ffffffffffffffffffffffffffffffffffffffff1614610b2557600080fd5b8160026000828254610b379190611299565b9250508190555081600460003373ffffffffffffffffffffffffffffffffffffffff1673ffffffffffffffffffffffffffffffffffffffff1681526020019081526020016000206000828254610b8d9190611299565b925050819055503373ffffffffffffffffffffffffffffffffffffffff16600073ffffffffffffffffffffffffffffffffffffffff167fddf252ad1be2c89b69c2b068fc378daa952ba7f163c4a11628f55a4df523b3ef84604051610bf291906110cd565b60405180910390a360019050919050565b6000600460003373ffffffffffffffffffffffffffffffffffffffff1673ffffffffffffffffffffffffffffffffffffffff16815260200190815260200160002054821115610c5157600080fd5b81600460003373ffffffffffffffffffffffffffffffffffffffff1673ffffffffffffffffffffffffffffffffffffffff16815260200190815260200160002054610c9c9190611265565b600460003373ffffffffffffffffffffffffffffffffffffffff1673ffffffffffffffffffffffffffffffffffffffff1681526020019081526020016000208190555081600460008573ffffffffffffffffffffffffffffffffffffffff1673ffffffffffffffffffffffffffffffffffffffff16815260200190815260200160002054610d2a9190611299565b600460008573ffffffffffffffffffffffffffffffffffffffff1673ffffffffffffffffffffffffffffffffffffffff168152602001908152602001600020819055508273ffffffffffffffffffffffffffffffffffffffff163373ffffffffffffffffffffffffffffffffffffffff167fddf252ad1be2c89b69c2b068fc378daa952ba7f163c4a11628f55a4df523b3ef84604051610dca91906110cd565b60405180910390a36001905092915050565b6000600460008060009054906101000a900473ffffffffffffffffffffffffffffffffffffffff1673ffffffffffffffffffffffffffffffffffffffff1673ffffffffffffffffffffffffffffffffffffffff16815260200190815260200160002054905090565b6000600560008473ffffffffffffffffffffffffffffffffffffffff1673ffffffffffffffffffffffffffffffffffffffff16815260200190815260200160002060008373ffffffffffffffffffffffffffffffffffffffff1673ffffffffffffffffffffffffffffffffffffffff16815260200190815260200160002054905092915050565b60008060009054906101000a900473ffffffffffffffffffffffffffffffffffffffff16905090565b600081519050919050565b600082825260208201905092915050565b60005b83811015610f2e578082015181840152602081019050610f13565b83811115610f3d576000848401525b50505050565b6000601f19601f8301169050919050565b6000610f5f82610ef4565b610f698185610eff565b9350610f79818560208601610f10565b610f8281610f43565b840191505092915050565b60006020820190508181036000830152610fa78184610f54565b905092915050565b600080fd5b600073ffffffffffffffffffffffffffffffffffffffff82169050919050565b6000610fdf82610fb4565b9050919050565b610fef81610fd4565b8114610ffa57600080fd5b50565b60008135905061100c81610fe6565b92915050565b6000819050919050565b61102581611012565b811461103057600080fd5b50565b6000813590506110428161101c565b92915050565b6000806040838503121561105f5761105e610faf565b5b600061106d85828601610ffd565b925050602061107e85828601611033565b9150509250929050565b60008115159050919050565b61109d81611088565b82525050565b60006020820190506110b86000830184611094565b92915050565b6110c781611012565b82525050565b60006020820190506110e260008301846110be565b92915050565b60008060006060848603121561110157611100610faf565b5b600061110f86828701610ffd565b935050602061112086828701610ffd565b925050604061113186828701611033565b9150509250925092565b60006020828403121561115157611150610faf565b5b600061115f84828501610ffd565b91505092915050565b60006020828403121561117e5761117d610faf565b5b600061118c84828501611033565b91505092915050565b600080604083850312156111ac576111ab610faf565b5b60006111ba85828601610ffd565b92505060206111cb85828601610ffd565b9150509250929050565b600060ff82169050919050565b6111eb816111d5565b82525050565b600060208201905061120660008301846111e2565b92915050565b61121581610fd4565b82525050565b6000602082019050611230600083018461120c565b92915050565b7f4e487b7100000000000000000000000000000000000000000000000000000000600052601160045260246000fd5b600061127082611012565b915061127b83611012565b92508282101561128e5761128d611236565b5b828203905092915050565b60006112a482611012565b91506112af83611012565b9250827fffffffffffffffffffffffffffffffffffffffffffffffffffffffffffffffff038211156112e4576112e3611236565b5b82820190509291505056fea264697066735822122046781ea1f4e847dc55d2f21cb126395f8fe547320aea3c7a5bea592598ec8e5764736f6c634300080d0033",
  "immutableReferences": {},
  "source": "// SPDX-License-Identifier: MIT\r\npragma solidity ^0.8.13;\r\n\r\ncontract Token {\r\n    string constant public name = \"Ashish Token\";\r\n    string constant public symbol = \"ASH\";\r\n    uint8 constant public decimal = 18;\r\n    address admin;\r\n    address self;\r\n    uint256 _totalSupply;\r\n    uint256 public tokensSold = 0;\r\n    uint256 constant public tokenPrice = 1000000000000000;\r\n\r\n    mapping(address => uint256) public balances;\r\n    mapping(address => mapping(address => uint256)) public allowed;\r\n\r\n\r\n    event Approval(address indexed tokenOwner, address indexed spender, uint tokens);\r\n    event Transfer(address indexed from, address indexed to, uint tokens);\r\n\r\n\r\n    constructor(uint256 total) {\r\n        _totalSupply = total;\r\n        balances[msg.sender] = _totalSupply;\r\n        admin = msg.sender;\r\n        self = address(this);\r\n    }\r\n\r\n\tfunction adminAddress() public view returns (address) {\r\n\t\treturn admin;\r\n\t}\r\n\r\n    function totalSupply() public view returns (uint256) {\r\n        return _totalSupply;\r\n    }\r\n\r\n    function balanceOf(address tokenOwner) public view returns (uint) {\r\n        return balances[tokenOwner];\r\n    }\r\n\r\n    function tokensRemaining() public view returns(uint256) {\r\n        return balances[admin];\r\n    }\r\n\r\n    function transfer(address reciever, uint numToken) public returns (bool) {\r\n        require(numToken <= balances[msg.sender]);\r\n        balances[msg.sender] = balances[msg.sender] - numToken;\r\n        balances[reciever] = balances[reciever] + numToken;\r\n        emit Transfer(msg.sender, reciever, numToken);\r\n        return true;\r\n    }\r\n\r\n    function approve(address delegate, uint numToken) public returns (bool) {\r\n        allowed[msg.sender][delegate] = numToken;\r\n        emit Approval(msg.sender, delegate, numToken);\r\n        return true;\r\n    }\r\n\r\n    function allowance(address owner, address delegate) public view returns (uint) {\r\n        return allowed[owner][delegate];\r\n    }\r\n\r\n    function transferFrom(address from, address to, uint numToken) public returns (bool) {\r\n        require(numToken <= balances[from]);\r\n        require(numToken <= allowed[from][msg.sender]);\r\n\r\n        balances[from] -= numToken;\r\n        allowed[from][msg.sender] -= numToken;\r\n        balances[to] += numToken;\r\n        emit Transfer(from, to, numToken);\r\n\r\n        return true;\r\n    }\r\n\r\n    function mint(uint256 value) public returns (bool) {\r\n        require(msg.sender == admin);\r\n        _totalSupply += value;\r\n        balances[msg.sender] += value;\r\n        emit Transfer(address(0),msg.sender, value);\r\n        return true;\r\n    }\r\n\r\n    function buyToken(uint256 numberOfToken) public payable {\r\n        // require(numberOfToken * tokenPrice == msg.value);\r\n        require(balances[admin] >= numberOfToken);\r\n        balances[admin] -= numberOfToken;\r\n        balances[msg.sender] += numberOfToken;\r\n        tokensSold += numberOfToken;\r\n        emit Transfer(admin, msg.sender, numberOfToken);\r\n    }\r\n\r\n}",
  "sourcePath": "C:\\Users\\Dell\\Desktop\\Dcart\\eth\\contracts\\Token.sol",
  "compiler": {
    "name": "solc",
    "version": "0.8.13+commit.abaa5c0e.Emscripten.clang"
  },
  "schemaVersion": "3.4.7",
  "updatedAt": "2022-05-12T14:38:12.945Z",
  "networkType": "ethereum",
  "devdoc": {
    "kind": "dev",
    "methods": {},
    "version": 1
  },
  "userdoc": {
    "kind": "user",
    "methods": {},
    "version": 1
  }
}